:100000000C9434000C9446000C9446000C9446006A
:100010000C9446000C9446000C9446000C94460048
:100020000C9446000C9446000C9446000C9471000D
:100030000C9446000C9446000C9446000C94460028
:100040000C9446000C9446000C9446000C94460018
:100050000C9446000C9446000C9446000C94460008
:100060000C9446000C94460011241FBECFEFD8E03C
:10007000DEBFCDBF21E0A0E0B1E001C01D92A03005
:10008000B207E1F70E9461000C9483000C94000019
:10009000F894E1E8F0E080818560808381E19AE76F
:1000A0009093890080938800808188608083EFE648
:1000B000F0E0808182608083789484B18F6184B91C
:1000C00008950E94480091E02FEF33ED80E3215026
:1000D00030408040E1F700C0000085B1892785B934
:1000E000F3CF1F920F920FB60F9211248F939F930D
:1000F00095B18EE1892785B99F918F910F900FBEA1
:0A0100000F901F901895F894FFCFA0
:00000001FF
