:100000000C9434000C9449000C9449000C94490061
:100010000C9449000C9449000C9449000C9449003C
:100020000C9449000C9449000C9449000C94210153
:100030000C9449000C9449000C9449000C9449001C
:100040000C9449000C9449000C9449000C9449000C
:100050000C9449000C9449000C9449000C944900FC
:100060000C9449000C94490011241FBECFEFD8E036
:10007000DEBFCDBF11E0A0E0B1E0E0E9F6E002C0F4
:1000800005900D92A430B107D9F70E9466000C9438
:1000900046030C940000F894E1E8F0E0808185606C
:1000A00080838CEB98E9909389008093880080810D
:1000B00088608083EFE6F0E08081826080837894BE
:1000C000209A289A8FEF8AB93D9A08950E944B0092
:1000D000FFCFCF93DF9300D000D01F92CDB7DEB714
:1000E0001BB8209A85B185B98FE39FE10197F1F79D
:1000F00000C00000289A90EA9A95F1F72898209875
:10010000A5EDAA95F1F7000083B18FEE90E001977D
:10011000F1F700C0000083B1A7ECB0E01197F1F750
:1001200000C00000FE013196CE01069658E040E086
:1001300013C01899FECF189BFECFA7ECB0E0119723
:10014000F1F700C00000220F18992160315089F7A3
:100150002193E817F90719F0352F242FEACF898169
:1001600090E0982F88272A81822B2AE030E0B9017D
:100170000E941E0370930301609302014B81842F40
:100180008F7790E0982F88275C81852BB9010E949A
:100190001E03709301016093000144235CF480917D
:1001A0000001909101019195819591099093010130
:1001B00080930001609100017091010180E090E066
:1001C0000E94DA0126E636E646EE5FE30E94BB02B5
:1001D00020E030E040E052E40E944A010E94AE017B
:1001E000709301016093000160910201709103011D
:1001F00080E090E00E94DA010E9417020E94AE01A6
:1002000070930301609302016091000170910101FC
:1002100080E090E00E94DA010E9417020E94AE0185
:1002200070930101609300018091000190910101A0
:100230008BB90F900F900F900F900F90DF91CF918F
:1002400008951F920F920FB60F9211242F933F9390
:100250004F935F936F937F938F939F93AF93BF93CE
:10026000EF93FF9398B180E2892788B90E946900D3
:10027000FF91EF91BF91AF919F918F917F916F917E
:100280005F914F913F912F910F900FBE0F901F9054
:1002900018955058BB27AA270ED01CC10DD130F09D
:1002A00012D120F031F49F3F11F41EF402C10EF47C
:1002B000E095E7FBCFC0E92F1ED180F3BA176207A4
:1002C00073078407950718F071F49EF54DC10EF47D
:1002D000E0950B2EBA2FA02D0B01B90190010C0156
:1002E000CA01A0011124FF27591B99F0593F50F46E
:1002F000503E68F11A16F040A22F232F342F4427C6
:10030000585FF3CF469537952795A795F0405395BD
:10031000C9F77EF41F16BA0B620B730B840BBAF08D
:100320009150A1F0FF0FBB1F661F771F881FC2F7F8
:100330000EC0BA0F621F731F841F48F4879577950C
:100340006795B795F7959E3F08F0B3CF9395880FC3
:1003500008F09927EE0F979587950895D4D088F0E7
:100360009F5790F0B92F9927B751A0F0D1F0660FA1
:10037000771F881F991F1AF0BA95C9F712C0B130BC
:1003800081F0F2D0B1E00895EFC0672F782F882771
:10039000B85F39F0B93FCCF3869577956795B395FB
:1003A000D9F73EF490958095709561957F4F8F4F6A
:1003B0009F4F0895E89409C097FB3EF4909580956F
:1003C000709561957F4F8F4F9F4F9923A9F0F92F1B
:1003D00096E9BB279395F695879577956795B79599
:1003E000F111F8CFFAF4BB0F11F460FF1BC06F5F7F
:1003F0007F4F8F4F9F4F16C0882311F096E911C091
:10040000772321F09EE8872F762F05C0662371F0B1
:1004100096E8862F70E060E02AF09A95660F771FC5
:10042000881FDAF7880F9695879597F9089585D0F4
:1004300080F09F3740F491110EF097C060E070E0BB
:1004400080E89FEB089526F41B16611D711D811D28
:1004500007C021C097F99F6780E870E060E00895C9
:10046000882371F4772321F09850872B762F07C0CB
:10047000662311F499270DC09051862B70E060E03F
:100480002AF09A95660F771F881FDAF7880F9695DE
:10049000879597F908959F3F31F0915020F4879503
:1004A00077956795B795880F911D9695879597F9DC
:1004B00008959FEF80EC089500240A9416161706FD
:1004C00018060906089500240A9412161306140645
:1004D00005060895092E0394000C11F4882352F0A8
:1004E000BB0F40F4BF2B11F460FF04C06F5F7F4F60
:1004F0008F4F9F4F089557FD9058440F551F59F047
:100500005F3F71F04795880F97FB991F61F09F3F00
:1005100079F087950895121613061406551FF2CF29
:100520004695F1DF08C0161617061806991FF1CF79
:1005300086957105610508940895E5DFA0F0BEE792
:10054000B91788F4BB279F3860F41616B11D672FC2
:10055000782F8827985FF7CF869577956795B11D97
:1005600093959639C8F30895E894BB2766277727B3
:10057000CB0197F908950BD0ADCF9EDF28F0A3DF14
:1005800018F0952309F066CF94CF1124EECFB3DF96
:10059000A0F3959FD1F3950F50E0551F629FF00196
:1005A000729FBB27F00DB11D639FAA27F00DB11DEF
:1005B000AA1F649F6627B00DA11D661F829F222778
:1005C000B00DA11D621F739FB00DA11D621F839FFF
:1005D000A00D611D221F749F3327A00D611D231FD5
:1005E000849F600D211D822F762F6A2F11249F5723
:1005F00050408AF0E1F088234AF0EE0FFF1FBB1F46
:10060000661F771F881F91505040A9F79E3F5105E4
:1006100070F020CFAACF5F3FECF3983EDCF38695D5
:1006200077956795B795F795E7959F5FC1F7FE2B8F
:10063000880F911D9695879597F9089597FB072E3A
:1006400016F4009407D077FD09D00E94320307FC0E
:1006500005D03EF4909581959F4F089570956195D2
:100660007F4F0895AA1BBB1B51E107C0AA1FBB1FE8
:10067000A617B70710F0A61BB70B881F991F5A952E
:10068000A9F780959095BC01CD010895F894FFCF0E
:04069000FF00FF0068
:00000001FF
