:100000000C9434000C9446000C9446000C9446006A
:100010000C9446000C9446000C9446000C94460048
:100020000C9446000C9446000C9446000C948B00F3
:100030000C9446000C9446000C9446000C94460028
:100040000C9446000C9446000C9446000C94460018
:100050000C9446000C9446000C9446000C94460008
:100060000C9446000C94460011241FBECFEFD8E03C
:10007000DEBFCDBF21E0A0E0B1E001C01D92A03005
:10008000B207E1F70E9460000C94AF000C940000EE
:10009000F894E1E8F0E080818560808381E19AE76F
:1000A0009093890080938800808188608083EFE648
:1000B000F0E0808182608083209A289A7894089565
:1000C0000E944800FFCF209A85B185B98FE39FE158
:1000D0000197F1F700C00000289A90EA9A95F1F78D
:1000E0002098E5EDEA95F1F700008FEE90E001979A
:1000F000F1F700C0000095E028E00AC0E7ECF0E06E
:100100003197F1F700C000008150C1F7915011F014
:10011000822FF4CF08951F920F920FB60F921124E1
:100120002F933F934F935F936F937F938F939F93FF
:10013000AF93BF93EF93FF930E946300FF91EF9102
:10014000BF91AF919F918F917F916F915F914F91EF
:100150003F912F910F900FBE0F901F901895F8941C
:02016000FFCFCF
:00000001FF
