:100000000C9434000CFFFF030CFFFF000C943E0027
:1000100000183E000C943E007C0C3E007C943E0098
:100020000C943E000CFFFFFF0C943E000C943E002D
:1000300000183E000C943E007C943E007C943E00F0
:100040000C943E000CFFFF000C94FFFF00183E00D4
:1000500000183E000C943E007CFF3E000C943E00D5
:100060000C94007D0CFFFF0011241FBEFF9ED8E002
:10007000FFBCCDBF0E94400080944F000C94000153
:100080004092FF252FE936E881FFFFFFFFFFFFFFCA
:10009000FFFEFFFFFFFFFFFFFFFFFFFFFEFFFFFF72
:1000A000FFFFFFFFFFFFFFFFFFFFFFFFFFFFFFFF60
:1000B000FFFEFFFFFFFFFFFFFFFFFFFFFEFFFFFF52
:1000C000FFFFFFFFFFFFFFFFFFFFFFFFFFFFFFFF40
:1000D000FFFEFFFFFFFFFFFFFFFFFFFFFEFFFFFF32
:1000E000FFFFFFFFFFFFFFFFFFFFFFFFFFFFFFFF20
:1000F000FFFFFFFFFFFEFFFFFFFFFFFFFFFFFFFF11
:10010000FEFFFFFFFFFFFFFFFFFFFFFFFFFFFFFF00
:10011000FFFFFFFFFFFFFFFFFFFEFFFFFFFFFFFFF0
:10012000FFFFFFFFFFFFFFFFFFFFFFFFFFFFFFFFDF
:10013000FFFFFFFFFFFFFFFFFFFEFFFFFFFFFFFFD0
:10014000FFFFFFFFFFFFFFFFFFFFFFFFFFFFFFA717
:10015000FFFFFFFFFFFFFFFFFFFEFFFFFFFFFFFFB0
:10016000FEB0FFFFB2FFFFFFFFFFFFFFFFFFFFFF3C
:10017000FFFFFFFFFFFEBBFFFFFEFFFFFFFFFFFFD5
:10018000FEFFFFFFFFFFFFFFFFFFFFFFFFFFFFFF80
:10019000FFFFFFFFFFFFFFFFFFFEFFFFFFFFFFFF70
:1001A000FFFFFFFFFEFFFFFFFFFFFFFFFFFFFFFF60
:1001B000FFFFFFFFFFFFFFFFFFFEFFFFFFFFFFFF50
:1001C000FFFFFFFFFEFFFFFFFFFFFFFFFFFFFFFF40
:1001D000FFFFFFFFFFFFFFFFFFFEFFFFFFFFFFFF30
:1001E000FFFFFFFFFEFFFFFFFFFFFFFFFFFFFFFF20
:1001F000FFFFFFF9FFFFFFFFFFFFFFFFFFFEFFFF16
:10020000FFFFFFFFFFFFFFFFFFFFFFFFFFFFFFFFFE
:10021000FFFFFFFFFFFFFFFFFFFEFFFFFFFFFFFFEF
:10022000FFFFFFFFFFFFFFFFFFFFFFFFFFFFFFFFDE
:10023000FFFFFFFFFFFFFFFFFFFEFFFFFFFFFFFFCF
:10024000FFFFFFFFFFFFFFFFFFFFFFFFFFFFFFFFBE
:10025000FFFFFFFFFFFFFFFFFFFEFFFFFFFFFFFFAF
:10026000FFFFFFFFFFFFFFFFFFFFFFFFFFFFFFFF9E
:10027000FFFFFFFFFFFFFFFFFFFEFFFFFFFFFFFF8F
:10028000FF40FFFFFEFFFFFFFFFFFFFFFFFFFFFF3E
:10029000FFFFFFFFFFFFFFFFFFFEFFFFFFFFFFFF6F
:1002A000FFFFFFFFFEFFFFFFFFFFFFFFFFFFFFFF5F
:1002B000FFFFFFFFFFFFFFFFFFFEFFFFFFFFFFFF4F
:1002C000FFFFFFFFFEFFFFFF64FFFFFFFFFFFFFFDA
:1002D000FFFFFFFFFFFFFFFFFFFF6DFFFFFEFFFFC1
:1002E000FFFFFFFFFEFFFFFFFFFFFFFFFFFFFFFF1F
:1002F000FFFFFFFFFFFFFFFFFFFFFFFFFFFEFFFF0F
:10030000FFFFFFFFFFFFFFFFFFFFFFFFFFFFFFFFFD
:10031000FFFFFFFFFFFFFFFFFFFEFFFFFFFFFFFFEE
:10032000FFFFFFFFFFFFFFFFFFFFFFFFFFFFFFFFDD
:10033000FFFFFFFFFFFFFFFFFFFEFFFFFFFFFFFFCE
:10034000FFFFFFFFFFFFFFFFFFFFFFFFFFFFFFA715
:10035000FFFFFFFFFFFFFFFFFFFEFFFFFFFFFFFFAE
:10036000FFFFFFFFFFFFFFFFFFFFFFFFFFFFFFFF9D
:10037000FFFFFFFFFFFFFFFFFFFEFFFFFFFFFFFF8E
:10038000FEC0FFFFFEFFFFFFFFFFFFFFFFFFFFFFBE
:10039000FFFFFFFFFFFFFFFFFFFEFFFFFFFFFFFF6E
:1003A000FFFFFFFFFEFFFFFFFFFFFFFFFFFFFFFF5E
:1003B000FFFFFFFFFFFFFFFFFFFEFFFFFFFFFFFF4E
:1003C000FFFFFFFFFEFFFFFFFFFFFFFFFFFFFFFF3E
:1003D000FFFFFFFFFFFFFFFFFFFFFFFFFFFEFFFF2E
:1003E000FFFFFFFFFFFFFFFFFEFFFFFFFFFFFFFF1E
:1003F000FFFFFFFFFFFFFFFFFFFFFFFFFFFEFFFF0E
:10040000FFFFFFFFFFFFFFFFFFFFFFFFFFFEFFFFFD
:10041000FFFFFFFFFFFFFFFFFEFFFFFFFFFFFFFFED
:10042000FFFF3EFFFFFFFFFFFFFFFFFFFFFEFFFF9E
:10043000FFFFFFFFFFFFFFFFFEFFFFFFFFFFFFFFCD
:10044000FFFF3EFFFFFFFFFFFFFFFFFFFFFEFFFF7E
:10045000FFFFFFFF0CFFFFFFFEFFFFFFFFFFFFFFA0
:10046000FFFFFFFFFFFFFFFFFFFFFFFFFFFEFFFF9D
:10047000FFFFFFFF0EFFFFFFFEFFFFFFFFFFFFFF7E
:10048000FFFFFFFFFFFFFFFFFFFFFFFFFFFE47FF35
:10049000FFFEFFFFFFFFFFFFFEFFFFFFFFFFFFFF6E
:1004A00050FFFFFFFFFFFFFFFFFFFFFFFFFEFFFF0C
:1004B000FFFFFFFFFFFFFFFFFEFFFFFFFFFFFFFF4D
:1004C000FFFFFFFFFFFFFFFFFFFFFFFFFFFFFFFF3C
:1004D000FFFEFFFFFFFFFFFFFFFFFFFFFEFFFFFF2E
:1004E000FFFFFFFFFFFFFFFFFFFFFFFFFFFFFFFF1C
:1004F000FFFEFFFFFFFFFFFFFFFFFFFFFEFFFFFF0E
:10050000FFFFFFFFFFFEFFFFFFFFFFFFFFFFFFFFFC
:10051000FEFFFFFFFFFFFFFFFFFFFFFFFFFFFFFFEC
:10052000FFFFFFFFFFFEFFFFFFFFFFFFFFFFFFFFDC
:10053000FEFFFFFFFFFFFFFFFFFFFFFFFFFFFFFFCC
:10054000FFFFFFFFFFFEFFFFFFFFFFFFFFFFFFFFBC
:10055000FEFFFFFFFFFFFFFFFFFFFFFFFFFFFFFFAC
:10056000FFFFFFFFFFFEFFFFFFFFFFFFFFFFFFFF9C
:10057000FEFFFFFFFFFFFFFFFFFFFFFFFFFFFFFF8C
:10058000FFFFFFFFFFFEFFFFFFFEFFFFFFFFFFFF7D
:10059000FEFFFFFFFFFFFFFFFFFFFFFFFFFFFFFF6C
:1005A000FFFFFFFFFFFFFFFFFFFFFFFFFFFFFFFF5B
:1005B000FEFFFFFFFFFFFFFFFFFFFFFFFFFFFFFF4C
:1005C000FFFFFFFFFFFFFFFFFFFEFFFFFFFFFFFF3C
:1005D000FEFFFFFFFFFFFFFFFFFFFFFFFFFFFFFF2C
:1005E000FFFFFFFFFFFFFFFFFFFFFFFFFFFFFFFF1B
:1005F000FFFFFFFFFEFFFFFFFFFFFFFFFFFFFFFF0C
:10060000FFFFFFFFFEFFFFFFFFFFFFFFFFFFFFFFFB
:10061000FFFFFFFFFFFFFFFFFFFFFFFFFFFEFFFFEB
:10062000FFFFFFFFFEFFFFFFFFFFFFFFFFFFFFFFDB
:10063000FFFFFFFFFFFFFFFFFFFFFFFFFFFEFFFFCB
:10064000FFFFFFFFFEFFFFFFFFFFFFFFFFFFFFFFBB
:10065000FFFFFFFFFFFFFFFFFFFFFFFFFFFEFFFFAB
:10066000FFFFFFFFFEFFFFFFFFFFFFFFFFFFFFFF9B
:10067000FFFFFFFFFFFFFFFFFFFFFFFFFFFEFFFF8B
:10068000FFFFFFFFFF42FFFFFEFFFFFFFFFFFFFF38
:10069000FFFFFFFFFFFFFF4BFFFFFFFFFFFFFFFF1E
:1006A000FFFEFFFFFFFFFFFFFFFFFFFFFFFFFFFF5B
:1006B000FFFFFFFFFFFFFFFFFFFFFFFFFFFEFFFF4B
:1006C000FFFEFFFFFFFFFFFFFEFFFFFFFFFFFFFF3C
:1006D000FFFFFFFFFFFFFFFFFFFFFFFFFFFFFFFF2A
:1006E000FFFEFFFFFFFFFFFFFFFFFFFFFFFFFFFF1B
:1006F000FFFFFFFFFFFFFFFFFFFFFFFFFFFFFFFF0A
:10070000FFFFFFFFFFFFFFFFFFFFFFFFFFFFFFFFF9
:10071000FFFFFFFFFFFFFFFFFFFEFFFFFFFFFFFFEA
:10072000FFFFFFFFFFFFFFFFFFFFFFFFFFFFFFFFD9
:10073000FFFFFFFFFFFFFFFFFFFEFFFFFFFFFFFFCA
:10074000FFFFFFFFFFFFFFFFFFFFFFFFFFFFFFFFB9
:10075000FFFFFFFFFFFFFFFFFFFEFFFFFFFFFFFFAA
:10076000FFFFFFFFFFFFFFFFFFFFFFFFFFFFFFFF99
:10077000FFFFFFFFFFFFFFFFFFFEFFFFFFFFFFFF8A
:10078000FFFFFFFFFEFFFFFFFFFFFFFFFFFFFFFF7A
:10079000FFFFFFFFFFFFFFFFFFFFFFFFFFFEFFFF6A
:1007A000FFFFFFFFFFFFFFFFFFFFFFFFFFFFFFFF59
:1007B000FFFFFFFFFFFFFFFFFFFFFFFFFFFEFFFF4A
:1007C000FFFFFFFFFEE2FFFFFFFFFFFFFFFFFFFF57
:1007D000FFFFFFFFFFFFFFFFFFFFFFFFFFFEFFFF2A
:1007E000FFFFFFFFFFFFFFFFFEFFFFFFFFFFFFFF1A
:1007F000FFFFFFFFFFFFFFFFFFFFFFFFFFFEFFFF0A
:10080000FFFFFFFFFFFFFFFFFFFF3EFFFFFFFFFFB9
:10081000FFFFFFFFFFFEFFFFFFFFFFFF0CFFFFFFDC
:10082000FEFFFFFFFFFFFFFFFFFF3EFFFFFFFFFF9A
:10083000FFFFFFFFFFFEFFFFFFFFFFFF0CFFFFFFBC
:10084000FEFFFFFFFFFFFFFFFFFFFFFFFFFFFFFFB9
:10085000FFFFFFFFFFFEFFFFFFFFFFFF0CFFFFFF9C
:10086000FEFFFFFFFFFFFFFFFFFFFFFFFFFFFFFF99
:10087000FFFFFFFFFFFEFFFFFFFFFFFFFFFFFFFF89
:10088000FEFFFFFFFFFFFFFFFFFFFFFFFFFFFFFF79
:10089000FFFFFFFFFFFEFFFFFFFEFFFFFFFFFFFF6A
:1008A000FEFFFFFFFFFFFFFFFFFFFFFFFFFFFFFF59
:1008B000FFFFFFFFFFFEFFFFFFFFFFFFFFFFFFFF49
:1008C000FEFFFFFFFFFFFFFFFFFFFFFFFFFFFFFF39
:1008D000FFFFFFFFFFFFFFFFFFFEFFFFFFFFFFFF29
:1008E000FFFFFFFFFEFFFFFFFFFFFFFFFFFFFFFF19
:1008F000FFFFFFFFFFFFFFFFFFFEFFFFFFFFFFFF09
:10090000FFFFFFFFFFFFFF83FFFFFFFFFFFFFFFF73
:10091000FFFEFFFFFFFFFFFFFE8CFFFFFEFFFFFF5D
:10092000FFFFFFFFFFFFFFFFFFFFFFFFFFFEFFFFD8
:10093000FFFEFFFFFFFFFFFFFEFFFFFFFFFFFFFFC9
:10094000FFFFFFFFFFFFFFFFFFFFFFFFFFFEFFFFB8
:10095000FFFFFFFFFFFFFFFFFEFFFFFFFFFFFFFFA8
:10096000FFFFFFFFFFFFFFFFFFFFFFFFFFFEFFFF98
:10097000FFFFFFFFFFFFFFFFFEFFFFFFFFFFFFFF88
:10098000FFFFFFFFFFFFFFFFFFFFFFFFFFFFFFFF77
:10099000FFFEFFFFFFFFFFFFFFFFFFFFFEFFFFFF69
:1009A000FFFFFFFFFFFFFFFFFFFFFFFFFFFFFFFF57
:1009B000FFFEFFFFFFFFFFFFFEFFFFFFFEFFFFFF4A
:1009C000FFFFFFFFFFFFFFFFFFFFFFFFFFFFFFFF37
:1009D000FFFEFFFFFFFFFFFFFFFFFFFFFEFFFFFF29
:1009E000FFFFFFFFFFFFFFFFFFFFFFFFFFFFFFFF17
:1009F000FFFEFFFFFFFFFFFFFFFFFFFFFEFFFFFF09
:100A0000FFFFFFFFFFFEFFFFFFFFFFFFFFFFFFFFF7
:100A1000FEFFFFFFFFFFFFFFFFFFFFFFFFFFFFFFE7
:100A2000FFFFFFFFFFFEFFFFFFFFFFFFFFFFFFFFD7
:100A3000FEFFFFFFFFFFFFFFFFFFFFFFFFFFFFFFC7
:100A4000FFFFFFFFFFFEFFFFFFFFFFFFFFFFFFFFB7
:100A5000FEFFFFFFFFFFFFFFFFFFFFFFFFFFFFFFA7
:100A6000FFFFFFFFFFFEFFFFFFFFFFFFFF36FFFF60
:100A7000FEFFFFFFFFFFFFFFFFFFFFFFFFFFFF3F47
:100A8000FFFFFFFFFFFEFFFFFFFFFFFFFFFFFFFF77
:100A9000FEFFFFFFFFFFFFFFFFFFFFFFFFFFFFFF67
:100AA000FFFFFFFFFFFFFFFFFFFFFFFFFFFFFFFF56
:100AB000FEFFFFFFFFFFFFFFFFFFFFFFFFFFFFFF47
:100AC000FFFFFFFFFFFFFFFFFFFFFFFFFFFFFFFF36
:100AD000FEFFFFFFFFFFFFFFFFFFFFFFFFFFFFFF27
:100AE000FFFFFFFFFFFFFFFFFFFEFFFFFFFFFFFF17
:100AF000FFFFFFFFFEFFFFFFFFFFFFFFFFFFFFFF07
:100B0000FFFFFFFFFEFFFFFFFFFFFFFFFFFFFFFFF6
:100B1000FFFFFFFFFFFFFFFFFFFFFFFFFFFEFFFFE6
:100B2000FFFFFFFFFEFFFFFFFFFFFFFFFFFFFFFFD6
:100B3000FFFFFFFFFFFFFFFFFFFFFFFFFFFEFFFFC6
:100B4000FFFFFFFFFEFFFFFFFFFFFFFFFFFFFFFFB6
:100B5000FFFFFFA9FFFFFFFFFFFFFFFFFFFEFFFFFC
:100B6000FFFFFFFFFFFFFFFFFFFFFFFFFFFFFFFF95
:100B7000FFFFFFFFFFFFFFFFFFFFFFFFFFFEFFFF86
:100B8000FFFFFFFFFFFFFFFFFFFFFFFFFFFFFFFF75
:100B9000FFFFFFFFFFFFFFFFFFFFFFFFFFFEFFFF66
:100BA000FFFFFFFFFFFFFFFFFFFFFFFFFFFFFFFF55
:100BB000FFFFFFFFFFFFFFFFFFFFFFFFFFFEFFFF46
:100BC000FFFFFFFFFFFFFFFFFFFFFFFFFFFFFFFF35
:100BD000FFFFFFFFFFFFFFFFFFFFFFFFFFFEFFFF26
:100BE000FFFFFFFFFFFFFFFFFEFFFFFFFFFFFFFF16
:100BF000FFFFFFFFFFFFFFFFFFFFFFFFFFFFFFFF05
:100C0000FFFFFFFFFFFFFFFFFFFFFFFFFFFFFFFFF4
:100C1000FFFFFFFFFFFEFFFFFFFFFFFFFFFFFFFFE5
:100C2000FEFFFFFFFFFFFFFFFFFFFFFFFFFFFFFFD5
:100C3000FFFFFFFFFFFEFFFFFFFFFFFFFFFFFFFFC5
:100C4000FEFFFFFFFFFFFFFFFFFFFFFFFFFFFFFFB5
:100C5000FFFFFFFFFFFEFFFFFFFFFFFFFFFFFFFFA5
:100C6000FEFFFFFFFFFFFFFFFFFFFFFFFFFFFFFF95
:100C7000FFFFFFFFFFFEFFFFFFFFFFFFFFFFFFFF85
:100C8000FEFFFFFFFFFFFFFFFFFFFFFFFFFFFFFF75
:100C9000FFFFFFFFFFFFFFFFFFFEFFFFFFFFFFFF65
:100CA000FFFFFFFFFEFFFFFFFFFFFFFFFFFFFF57FD
:100CB000FFFFFFFFFFFFFFFFFFFEFFFFFFFFFFFF45
:100CC000FFFFFFFFFEFFFFFFFFFFFFFFFFFFFFFF35
:100CD000FFFFFFFFFFFFFFFFFFFEFFFFFFFFFFFF25
:100CE000FFFFFFFFFEFFFFFFFFFFFFFFFFFFFFFF15
:100CF000FFFFFFFFFFFFFFFFFFFE7DFFFFFEFFFF88
:100D0000FFFFFFFF82FFFFFFFFFFFFFFFFFFFFFF70
:100D1000FFFFFFFFFFFEFFFFFFFEFFFFFFFFFFFFE5
:100D2000FEFFFFFFFFFFFFFFFFFFFFFFFFFFFFFFD4
:100D3000FFFFFFFFFFFEFFFFFFFEFFFFFFFFFFFFC5
:100D4000FEFFFFFFFFFFFFFFFFFFFFFFFFFFFFFFB4
:100D5000FFFFFFFFFFFEFFFFFFFFFFFFFFFFFFFFA4
:100D6000FEFFFFFFFFFFFFFFFFFFFFFFFFFFFFFF94
:100D7000FFFFFFFFFFFEFFFFFFFFFFFFFFFFFFFF84
:100D8000FEFFFFFFFFFFFFFFFFFFFFFFFFFFFFFF74
:100D9000FFFFFFFFFFFFFFFFFFFEFFFFFFFFFFFF64
:100DA000FFFFFFFFFEFFFFFFFFFFFFFFFFFFFFFF54
:100DB000FFFFFFFFFFFFFFFFFFFEFFFFFFFFFFFF44
:100DC000FFFFFFFFFEFFFFFFFFFFFFFFFFFFFFFF34
:100DD000FFFFFFFFFFFFFFFFFFFEFFFFFFFFFFFF24
:100DE000FFFFFFFFFEFFFFFFFFFFFFFFFFFFFFFF14
:100DF000FFFFFFFFFFFFFFFFFFFEFDFFFFFEFFFF07
:100E0000FFFFFFFFFFFFFFFFFFFFFFFFFFFEFFFFF3
:100E1000FFFFFFFFFFFFFFFFFEFFFFFFFFFFFFFFE3
:100E2000FFFFFFFFFFFFFFFFFFFFFFFFFFFEFFFFD3
:100E3000FFFFFFFFFFFFFFFFFEFFFFFFFFFFFFFFC3
:100E4000FFFFFFFFFFFFFFFFFFFFFFFFFFFEFFFFB3
:100E5000FFFFFFFFFFFFFFFFFEFFFFFFFFFFFFFFA3
:100E6000FFFFFFFFFFFFFFFFFFFFFFFFFFFEFFFF93
:100E7000FFFFFFFFFFFFFFFFFEFFFFFFFFFFFFFF83
:100E8000FFFFFFFFFFFFFFFFFFFFFFFFFFFEFFFF73
:100E9000FFFFFFFFFFFFFFFFFEFFFFFFFFFFFFFF63
:100EA000FFFFFFFFFFFFFFFFFFFFFFFFFFFEFFFF53
:100EB000FFFFFFFFFFFFFFFFFEFFFFFFFFFFFFFF43
:100EC000FFFFFFFFFFFFFFFFFFFFFFFFFFFFFFFF32
:100ED000FFFEFFFFFFFFFFFFFEFFFFFFFEFFFFFF25
:100EE000FFFFFFFFFFFFFFFFFFFFFFFFFFFFFFFF12
:100EF000FFFEFFFFFFFFFFFFFFFFFFFFFEFFFFFF04
:100F0000FFFEFFFFFFFFFFFFFFFFFFFFFEFFFFFFF3
:100F1000FFFFFFFFFFFFFFFFFFFFFFFFFFFFFFFFE1
:100F2000FFFEFFFFFFFFFFFFFFFFFFFFFEFFFFFFD3
:100F3000FFFFFFFFFFFFFFFFFFFFFFFFFFFFFFFFC1
:100F4000FFFFFFFFFFFFFFFFFEA4FFFFFEFFFFFF0E
:100F5000FFFFFFFFFFFFFFFFFFFFFFADFFFFFFFFF3
:100F6000FFFFFFFFFFFFFFFFFEFFFFFFFFFFFFFF92
:100F7000B8FFFFFFFFFFFFFFFFFFFFFFFFFFFFFFC8
:100F8000FFFFFFFFFFFFFFFFFFFFFFFFFEFFFFFF72
:100F9000FFFFFFFFFFFFFFFFFFFFFFFFFFFFFFFF61
:100FA000FFFFFFFFFFFEFFFFFFFFFFFFFEFFFFFF53
:100FB000FFFFFFFFFFFFFFFFFFFFFFFFFFFFFFFF41
:100FC000FFFFFFFFFFFEFFFFFFFFFFFFFEFFFFFF33
:100FD000FFFFFFFFFFFFFFFFFFFFFFFFFFFFFFFF21
:100FE000FFFFFFFFFFFEFFFFFFFFFFFFFFFFFFFF12
:100FF000FEFFFFFFFFFFFFFFFFFFFFFFFFFFFFFF02
:10100000FFFFFFFFFFFFFFFFFFFFFFFFFFFFFFFFF0
:10101000FFFFFFFFFFFEFFFFFFFFFFFFFFFFFFFFE1
:10102000FEFFFFFFFFFFFFFFFFFFFFFFFFFFFFFFD1
:10103000FFFFFFFFFFFEFFFFFFFFFFFFFFFFFFFFC1
:10104000FEFFFFFFFFFFFFFFFFFFFFFFFFFFFFFFB1
:10105000FFFFFFFFFFFEFFFFFFFFFFFF0CFFFFFF94
:10106000FEFFFFFFFFFFFFFFFFFF1FFFFFFFFFFF71
:10107000FFFFFFFFFFFEFFFFFFFFFFFF0CFFFFFF74
:10108000FEFFFFFFFFFFFFFFFFFFFFFFFFFFFFFF71
:10109000FFFFFFFFFFFEFFFFFFFFFFFFFFFFFFFF61
:1010A000FEFFFFFFFFFFFFFFFFFFFFFFFFFFFFFF51
:1010B000FFFFFFFFFFFEFFFFFFFFFFFFFFFFFFFF41
:1010C000FEFFFFFFFFFFFFFFFFFFFFFFFFFFFFFF31
:1010D000FFFFFFFFFFFE6BFFFFFEFFFFFFFFFFFFB6
:1010E000FEFFFFFFFFFFFFFFFFFFFFFFFFFFFFFF11
:1010F000FFFFFFFFFFFFFFFFFFFEFFFFFFFFFFFF01
:10110000FFFFFFFFFFFFFFFFFFFFFFFFFFFFFFFFEF
:10111000FFFFFFFFFFFEFFFFFFFFFFFFFFFFFFFFE0
:10112000FEFFFFFFFFFFFFFFFFFFFFFFFFFFFFFFD0
:10113000FFFFFFFFFFFEFFFFFFFFFFFFFFFFFFFFC0
:10114000FEFFFFFFFFFFFFFFFFFFFFFFFFFFFFFFB0
:10115000FFFFFFFFFFFEFFFFFFFFFFFFFFFFFFFFA0
:10116000FEFFFFFFFFFFFFFFFFFFFFFFFFFFFFFF90
:10117000FFFFFFFFFFFEFFFFFFFFFFFFFEBEFFFFC2
:10118000FEFFFFFFFFFFFFFFFFFFFFFFFFFFFFFF70
:10119000FFFFFFFFFFFEFFFFFFFFFFFFFFFFFFFF60
:1011A000FEFFFFFFFFFFFFFFFFFFFFFFFFFFFFFF50
:1011B000FFFFFFFFFFFEFFFFFFFFFFFFFFFFFFFF40
:1011C000FEFFFFFFFFFFFFFFFFFFFFFFFFFFFFFF30
:1011D000FFFFFFFFFFFEFFFFFFFFFFFFFFFFFFFF20
:1011E000FEFFFFFFFFFFFFFFFFFFFFFFFFFFFFFF10
:1011F000FFFFFFFFFFFFFFFFFFFEFFFFFFFFFFFF00
:10120000FFFFFFFFFFFFFFFFFFFFFFFFFFFFFFFFEE
:10121000FFFFFFFFFFFFFFFFFFFFFFFFFEFFFFFFDF
:10122000FFFFFFFFFFFFFFFFFFFFFFFFFFFFFFFFCE
:10123000FFFEFFFFFFFFFFFFFFFFFFFFFEFFFFFFC0
:10124000FFFFFFFFFFFFFFFFFFFFFFFFFFFFFFFFAE
:10125000FFFEFFFFFFFFFFFFFFFFFFFFFEFFFFFFA0
:10126000FFFFFFFFFFFFFFFFFFFFFFFFFFFFFFFF8E
:10127000FFFEFFFFFFFFFFFFFFFFFFFFFEFFFFFF80
:10128000FFFFFFFFFFFFFFFFFFFFFFFFFFFFFFFF6E
:10129000FFFFFFFFFFFEFFFFFFFFFFFFFFFFFFFF5F
:1012A000FEFFFFFFFFFFFFFFFFFFFF55FFFFFFFFF9
:1012B000FFFFFFFFFFFEFFFFFFFFFFFFFFFFFFFF3F
:1012C000FEFFFFFFFFFFFFFFFFFFFFFFFFFFFFFF2F
:1012D000FFFFFFFFFFFEFFFFFFFFFFFFFFFFFFFF1F
:1012E000FEFFFFFFFFFFFFFFFFFFFFFFFFFFFFFF0F
:1012F000FFFFFFFFFFFFFFFFFFFFFFFFFFFFFFFFFE
:10130000FEFFFFFFFFFFFFFFFFFFFFFFFFFEFFFFEF
:10131000FFFFFFFFFFFFFFFFFFFFFFFFFFFFFFFFDD
:10132000FFFFFFFFFFFFFFFFFFFFFFFFFFFFFFFFCD
:10133000FFFFFFFFFEFFFFFFFFFFFFFFFFFFFFFFBE
:10134000FFFFFFFFFFFFFFFFFFFEFFFFFFFFFFFFAE
:10135000FFFFFFFFFEFFFFFFFFFFFFFFFFFFFFFF9E
:10136000FFFFFFFFFFFFFFFFFFFEFFFFFFFFFFFF8E
:10137000FFFFFFFFFEFFFFFFFFFFFFFFFFFFFFFF7E
:10138000FFFFFFFFFFFFFFFFFFFFFFFFFFFEFFFF6E
:10139000FFFFFFFFFFCAFFFFFEFFFFFFFFFFFFFF93
:1013A000FFFFFFFFFFFFFFFFFFFFD5FFFFFEFFFF78
:1013B000FFFFFFFFFEFFFFFFFFFFFFFFDEFFFFFF5F
:1013C000FFFFFFFFFFFFFFFFFFFFFFFFFFFEFFFF2E
:1013D000FFFFFFFFFFFFFFFFFEFFFFFFFFFFFFFF1E
:1013E000FFFFFFFFFFFFFFFFFFFFFFFFFFFEFFFF0E
:1013F000FFFFFFFFFFFFFFFFFEFFFFFFFFFFFFFFFE
:10140000FFFFFFFFFEFFFFFFFFFFFFFFFFFFFFFFED
:10141000FFFFFFFFFFFFFFFFFFFFFFFFFFFFFFFFDC
:10142000FFFFFFFFFEFFFFFFFFFFFFFFFFFFFFFFCD
:10143000FFFFFFFFFFFFFFFFFFFFFFFFFFFEFFFFBD
:10144000FFFEFFFFFEFFFFFFFFFFFFFFFFFFFFFFAE
:10145000FFFFFFFFFFFFFFFFFFFFFFFFFFFEFFFF9D
:10146000FFFFFFFFFEFFFFFFFFFFFFFFFFFFFFFF8D
:10147000FFFFFFFFFFFFFFFFFFFFFFFFFFFEFFFF7D
:10148000FFFFFFFFFFFFFFFFFEFFFFFFFFFFFFFF6D
:10149000FFFFFFFFFFFFFFFFFFFFFFFFFFFFFFFF5C
:1014A000FFFEFFFFFFFFFFFFFEFFFFFFFFFFFFFF4E
:1014B000FFFFFFFFFFFFFFFFFFFFFFFFFFFFFFFF3C
:1014C000FFFEFFFFFFFFFFFFFEFFFFFFFFFFFFFF2E
:1014D000FFFFFFFFFFFFFFFFFFFFFFFFFFFFFFFF1C
:1014E000FFFEFFFFFFFFFFFFFFFFFFFFFFFFFFFF0D
:1014F000FFFFFFFFFFFFFFFFFFFFFFFFFFFFFFFFFC
:10150000FFFFFFFFFFFFFFFFFFFFFFFFFFFFFFFFEB
:10151000FFFEFFFFFFFFFFFFFFFFFFFFFEFFFFFFDD
:10152000FFFFFFFFFFFFFFFFFFFFFFFFFFFFFFFFCB
:10153000FFFEFFFFFFFFFFFFFFFFFFFFFEFFFFFFBD
:10154000FFFFFFFFFFFFFFFFFFFFFFFFFFFFFFFFAB
:10155000FFFEFFFFFFFFFFFFFFFFFFFFFEFFFFFF9D
:10156000FFFFFFFFFFFFFFFFFFFFFFFFFFFFFFFF8B
:10157000FFFEFFFFFFFFFFFFFFFFFFFFFEFFFFFF7D
:10158000FFFFFFFFFFFFFFFFFFFFFFFFFFFFFFFF6B
:10159000FFFFFFFFFFFEFFFFFFFFFFFFFEFFFFFF5D
:1015A000FFFFFFFFFFFFFFFFFFFFFFFFFFFFFFFF4B
:1015B000FFFEFFFFFFFFFFFFFFFFFFFFFEFFFFFF3D
:1015C000FFFFFFFFFFFFFFFFFFFFFFE5FFFFFFFF45
:1015D000FFFFFFFFFFFEFFFFFFFFFFFFFEEEFFFF2E
:1015E000FEFFFFFFFFFFFFFFFFFFFFFFFFFFFFFF0C
:1015F000FFFFFFFFFFFEFFFFFFFFFFFFFFFFFFFFFC
:10160000FEFFFFFFFFFFFFFFFFFFFFFFFFFFFFFFEB
:10161000FFFEFFFFFFFFFFFFFFFFFFFFFEFFFFFFDC
:10162000FFFFFFFFFFFFFFFFFFFFFFFFFFFFFFFFCA
:10163000FFFEFFFFFFFFFFFFFFFFFFFFFEFFFFFFBC
:10164000FFFFFFFFFFFFFFFFFFFFFFFFFFFFFFFFAA
:10165000FFFEFFFFFFFFFFFFFFFFFFFFFEFFFFFF9C
:10166000FFFFFFFFFFFFFFFFFFFFFFFFFFFFFFFF8A
:10167000FFFEFFFFFFFFFFFFFFFFFFFFFEFFFFFF7C
:10168000FFFFFFFFFFFFFFFFFFFFFFFFFFFFFFFF6A
:10169000FFFEFFFFFFFFFFFFFFFFFFFFFEFFFFFF5C
:1016A000FFFFFFFFFFFFFFFFFFFFFFFFFFFFFFFF4A
:1016B000FFFEFFFFFFFFFFFFFFFFFFFFFEFFFFFF3C
:1016C000FFFFFFFFFFFFFFFFFFFFFFFFFFFFFFFF2A
:1016D000FFFF69FFFFFEFFFFFFFFFFFFFEFFFFFFB2
:1016E000FFFFFFFFFFFFFFFFFFFFFFFFFFFFFFFF0A
:1016F000FFFFFFFFFFFEFFFFFFFFFFFFFFFFFFFFFB
:10170000FEFFFFFFFFFFFFFFFFFFFFFFFFFFFFFFEA
:10171000FFFEFFFFFFFFFFFFFFFFFFFFFEFFFFFFDB
:10172000FFFFFFFFFFFFFFFFFFFFFFFFFFFFFFFFC9
:10173000FFFEFFFFFFFFFFFFFF9CFFFFFEFFFFFF1E
:10174000FFFFFFFFFFFFFFFFFFFFFFFFFFFEFFFFAA
:10175000FFFEFFFFFFFFFFFFFEFFFFFFFFFFFFFF9B
:10176000FFFFFFFFFFFFFFFFFFFFFFFFFFFEFFFF8A
:10177000FFFFFFFFFFFFFFFFFEFFFFFFFFFFFFFF7A
:10178000C0FFFFFFFFFFFFFFFFFFFFFFFFFFFFFFA8
:10179000FFFEFFFFFFFFFFFFFFFFFFFFFEFFFFFF5B
:1017A000FFFFFFFFFFFFFFFFFFFFFFFFFFFFFFFF49
:1017B000FFFEFFFFFFFFFFFFFFFFFFFFFEFFFFFF3B
:1017C000FFFFFFFFFFFFFFFFFFFFFFFFFFFFFFFF29
:1017D000FFFEFFFFFFFFFFFFFFFFFFFFFEFFFFFF1B
:1017E000FFFFFFFFFFFFFFFFFFFFFFFFFFFFFFFF09
:1017F000FFFFFFFFFFFEFFFFFFFFFFFFFFFFFFFFFA
:10180000FEFFFFFFFFFEFFFFFFFFFFFFFFFFFFFFEA
:10181000FEFFFFFFFFFFFFFFFFFFFFFFFFFFFFFFD9
:10182000FFFFFFFFFFFEFFFFFFFFFFFFFFFFFFFFC9
:10183000FEFFFFFFFFFFFFFFFFFFFFFFFFFFFFFFB9
:10184000FFFFFFFFFFFEFFFFFFFFFFFFFFFFFFFFA9
:10185000FEFFFFFFFFFFFFFFFFFFFFFFFFFFFFFF99
:10186000FFFFFFFFFFFEFFFFFFFFFFFFFFFFFFFF89
:10187000FEFFFFFFFFFFFFFFFFFFFFFFFFFFFFFF79
:10188000FFFFFFFFFFFEFFFFFFFFFFFFFFFFFFFF69
:10189000FEFFFFFFFFFFFFFFFFFFFFFFFFFFFFFF59
:1018A000FFFFFFFFFFFFFFFFFFFFFFFFFFFFFFFF48
:1018B000FEFFFFFFFFFFFFFFFFFFFFFFFFFFFFFF39
:1018C000FFFFFFFFFFFFFFFFFFFEFFFFFFFFFFFF29
:1018D000FE68FFFFFEFFFFFFFFFFFFFFFFFFFFFFB1
:1018E000FFFFFF71FFFFFFFFFFFFFFFFFFFFFFFF96
:1018F000FFFFFFFFFEFFFFFFFFFFFFFFFFFFFFFFF9
:10190000FFFFFFFFFEFFFFFFFFFFFFFFFFFFFFFFE8
:10191000FFFFFFFFFFFFFFFFFFFFFFFFFFFEFFFFD8
:10192000FFFFFFFFFEFFFFFFFFFFFFFFFFFFFFFFC8
:10193000FFFFFFFFFFFFFFFFFFFFFFFFFFFEFFFFB8
:10194000FFFFFFFFFEFFFFFFFFFFFFFFFFFFFFFFA8
:10195000FFFFFFFFFFFFFFFFFFFFFFFFFFFEFFFF98
:10196000FFFFFFFFFEFFFFFFFFFFFFFFFFFFFFFF88
:10197000FFFFFFFFFFFFFFFFFFFFFFFFFFFEFFFF78
:10198000FFFFFFFFFFC2FFFFFEFFFFFFFFFFFFFFA5
:10199000FFFFFFFFFFFFFFCBFFFFFFFFFFFFFFFF8B
:1019A000FFFEFFFFFFFFFFFFFFFFFFFFFFFFFFFF48
:1019B000FFFFFFFFFFFFFFFFFFFFFFFFFFFEFFFF38
:1019C000FFFEFFFFFFFFFFFFFEFFFFFFFFFFFFFF29
:1019D000FFFFFFFFFFFFFFFFFFFFFFFFFFFFFFFF17
:1019E000FFFEFFFFFFFFFFFFFFFFFFFFFFFFFFFF08
:1019F000FFFFFFFFFFFFFFFFFFFFFFFFFFFFFFFFF7
:101A0000FFFFFFFFFFFFFFFFFFFFFFFFFFFFFFFFE6
:101A1000FFFEFFFFFFFFFFFFFFFFFFFFFEFFFFFFD8
:101A2000FFFFFFFFFFFFFFFFFFFFFFFFFFFFFFFFC6
:101A3000FFFEFFFFFFFFFFFFFFFFFFFFFEFFFFFFB8
:101A4000FFFFFFFFFFFFFFFFFFFFFFFFFFFFFFFFA6
:101A5000FFFEFFFFFFFFFFFFFFFFFFFFFEFFFFFF98
:101A6000FFFFFFFFFFFFFFFFFFFFFFFFFFFFFFFF86
:101A7000FFFEFFFFFFFFFFFFFFFFFFFFFEFFFFFF78
:101A8000FFFFFFFFFFFFFFFFFFFFFFFFFFFFFFFF66
:101A9000FFFEFFFFFFFFFFFFFFFFFFFFFEFFFFFF58
:101AA000FFFFFFFFFFFFFFFFFFFFFFFFFFFFFFFF46
:101AB000FFFEFFFFFFFFFFFFFFFFFFFFFEFFFFFF38
:101AC000FFFFFFFFFFFFFFFFFFFFFFFFFFFFFFFF26
:101AD000FFFFFFFFFFFFFFFFFFFFFFFFFEFFFFFF17
:101AE000FFFFFFFFFFFFFFFFFFFFFFFFFFFFFFFF06
:101AF000FFFFFFFFFFFEFFFFFFFFFFFFFFFFFFFFF7
:101B0000FEFFFFFFFFFFFFFFFFFFFFFFFFFEFFFFE7
:101B1000FFFFFFFFFFFFFFFFFEFFFFFFFFFFFFFFD6
:101B2000FFFFFFFFFFFFFFFFFFFFFFFFFFFEFFFFC6
:101B3000FFFFFFFFFFFFFFFFFEFFFFFFFFFFFFFFB6
:101B4000FFFFFFFFFFFFFFFFFFFFFFFFFFFEFFFFA6
:101B5000FFFFFFFFFFFFFFFFFEFFFFFFFFFFFFFF96
:101B6000FFFFFFFFFFFFFFFFFFFFFFFFFFFEFFFF86
:101B7000FFFFFFFFFFFFFFFFFEFFFFFFFFFFFFFF76
:101B8000FFFFFFFFFFFFFFFFFFFFFFFFFFFFFFFF65
:101B9000FFFEFFFFFFFFFFFFFFCCFFFFFEFFFFFF8A
:101BA000FFFFFFFFFFFFFFFFFFFFFFFFFFFFFFFF45
:101BB000FFFEFFFFFFFFFFFFFFFFFFFFFFFFFFFF36
:101BC000FFFFFFFFFFFFFFFFFFFFFFFFFFFFFFFF25
:101BD000FFFEFFFFFFFFFFFFFFFFFFFFFEFFFFFF17
:101BE000FFFFFFFFFFFFFFFFFFFFFFFFFFFFFFFF05
:101BF000FFFEFFFFFFFFFFFFFFFFFFFFFEFFFFFFF7
:101C0000FFFFFFFFFFFEFFFFFFFFFFFFFFFFFFFFE5
:101C1000FEFFFFFFFFFFFFFFFFFFFFFFFFFFFFFFD5
:101C2000FFFFFFFFFFFEFFFFFFFFFFFFFFFFFFFFC5
:101C3000FEFFFFFFFFFFFFFFFFFFFFFFFFFFFFFFB5
:101C4000FFFFFFFFFFFEFFFFFFFFFFFFFFFFFFFFA5
:101C5000FEFFFFFFFFFFFFFFFFFFFFFFFFFFFFFF95
:101C6000FFFFFFFFFFFEFFFFFFFFFFFFFFFFFFFF85
:101C7000FEFFFFFFFFFFFFFFFFFFFFFFFFFFFFFF75
:101C8000FFFFFFFFFFFE43FFFFFEFFFFFFFFFFFF22
:101C9000FEFFFFFFFFFFFFFFFFFFFFFFFFFFFFFF55
:101CA000FFFFFFFFFFFFFFFFFFFFFFFFFFFFFFFF44
:101CB000FEFFFFFFFFFFFFFFFFFFFFFFFFFFFFFF35
:101CC000FFFFFFFFFFFFFFFFFFFEFFFFFFFFFFFF25
:101CD000FFFFFFFFFEFFFFFFFFFFFFFFFFFFFFFF15
:101CE000FFFFFFFFFFFFFFFFFFFFFFFFFFFFFFFF04
:101CF000FFFFFFFFFEFFFFFFFFFFFFFFFFFFFFFFF5
:101D0000FFFFFFFFFEFFFFFFFFFFFFFFFFFFFFFFE4
:101D1000FFFFFFFFFFFFFFFFFFFFFFFFFFFEFFFFD4
:101D2000FFFFFFFFFEFFFFFFFFFFFFFFFFFFFFFFC4
:101D3000FFFFFFFFFFFFFFFFFFFFFFFFFFFEFFFFB4
:101D4000FFFFFFFFFEFFFFFFFFFFFFFFFFFFFFFFA4
:101D5000FFFFFFFFFFFFFFFFFFFFFFFFFFFEFFFF94
:101D6000FFFFFFFFFEFFFFFFFFFFFFFFFFFFFFFF84
:101D7000FFFFFFFFFFFFFFFFFFFFFFFFFFFEFFFF74
:101D8000FFFFFFFFFFFFFFFFFFFFFFFFFFFFFFFF63
:101D9000FFFFFFFFFFFFFFFFFFFFFFFFFFFEFFFF54
:101DA000FFFFFFFFFFFFFFFFFFFFFFFFFFFFFFFF43
:101DB000FFFFFFFFFFFFFFFFFFFFFFFFFFFEFFFF34
:101DC000FFFFFFFFFFFFFFFFFEFFFFFFFFFFFFFF24
:101DD000FFFFFFFFFFFFFFFFFFFFFFFFFFFFFFFF13
:101DE000FFFEFFFFFFFFFFFFFEFFFFFFFFFFFFFF05
:101DF000FFFFFFFFFFFFFFFFFFFFFFFFFFFFFFFFF3
:101E0000FFFFFFFFFFFFFFFFFFFFFFFFFFFEFFFFE3
:101E1000FFFFFFFFFFFFFFFFFEFFFFFFFFFFFFFFD3
:101E2000FFFFFFFFFFFFFFFFFFFFFFFFFFFEFFFFC3
:101E3000FFFFFFFFFFFFFFFFFEFFFFFFFFFFFFFFB3
:101E4000FFFFFFFFFFFFFFFFFFFFFFFFFFFEFFFFA3
:101E5000FFFFFFFFFFFFFFFFFEFFFFFFFFFFFFFF93
:101E6000FFFFFFFFFFFFFFFFFFFFFFFFFFFEFFFF83
:101E7000FFFFFFFFFFFFFFFFFEFFFFFFFFFFFFFF73
:101E8000FFFFFFFFFFFFFFFFFFFFFFFFFFFEFFFF63
:101E9000FFFEFFFFFFFFFFFFFEFFFFFFFFFFFFFF54
:101EA000FFFFFFFFFFFFFFFFFFFFFFFFFFFEFFFF43
:101EB000FFFFFFFFFFFFFFFFFEFFFFFFFFFFFFFF33
:101EC000FFFFFFFFFFFFFFFFFFFFFFFFFFFFFFFF22
:101ED000FFFEFFFFFFFFFFFFFF6CFFFFFEFFFFFFA7
:101EE000FFFFFFFFFFFFFFFFFFFFFFFFFFFFFFFF02
:101EF000FFFEFFFFFFFFFFFFFFFFFFFFFEFFFFFFF4
:101F0000FFFFFFFFFFFFFFFFFEFFFFFFFFFFFFFFE2
:101F1000FFFFFFFFFFFFFFFFFFFFFFFFFFFFFFFFD1
:101F2000FFFFFFFFFFFFFFFFFEFFFFFFFFFFFFFFC2
:101F3000FFFFFFFFFFFFFFFFFFFFFFFFFFFFFFFFB1
:101F4000FFFEFFFFFFFFFFFFFEFFFFFFFFFFFFFFA3
:101F5000FFFFFFFFFFFFFFFFFFFFFFFFFFFFFFFF91
:101F6000FFFEFFFFFFFFFFFFFEFFFFFFFFFFFFFF83
:101F7000FFFFFFFFFFFFFFFFFFFFFFFFFFFFFFFF71
:101F8000FFFEFFFFFFFFFFFFFEFFFFFFFFFFFFFF63
:101F9000FFFFFFFFFFFFFFFFFFFFFFFFFFFFFFFF51
:101FA000FFFEFFFFFFFFFFFFFEFFFFFFFFFFFFFF43
:101FB000FFFFFFFFFFFFFFFFFFFFFFFFFFFFFFFF31
:101FC000FFFEFFFFFFFFFFFFFEFFFFFFFFFFFFFF23
:101FD000E8FFFFFFFFFFFFFFFFFFFFFFFFFFFFFF28
:101FE000FFFFF1FFFFFEFFFFFFFFFFFFFEFFFFFF11
:101FF000FFFFFFFFFFFFFFFFFFFFFFFFFFFFFFFFF1
:10200000FFFFFFFFFFFFFFFFFFFFFFFFFFFFFFFFE0
:10201000FFFFFFFFFFFFFFFFFFFEFFFFFFFFFFFFD1
:10202000FEFFFFFFFFFFFFFFFFFFFFFFFFFFFFFFC1
:10203000FFFFFFFFFFFEFFFFFFFEFFFFFFFFFFFFB2
:10204000FEFFFFFFFFFFFFFFFFFFFFFFFFFFFFFFA1
:10205000FFFFFFFFFFFEFFFFFFFFFFFFFFFFFFFF91
:10206000FEFFFFFFFFFFFFFFFFFFFFFFFFFFFFFF81
:10207000FFFFFFFFFFFEFFFFFFFFFFFFFFFFFFFF71
:10208000FEFFFFFFFFFFFFFFFFFFFFFFFFFFFFFF61
:10209000FFFFFFFFFFFFFFFFFFFEFFFFFFFFFFFF51
:1020A000FFFFFFFFFEFFFFFFFFFFFFFFFFFFFFFF41
:1020B000FFFFFFFFFFFFFFFFFFFEFFFFFFFFFFFF31
:1020C000FFFFFFFFFEFFFFFFFFFFFFFFFFFFFFFF21
:1020D000FFFFFFFFFFFFFFFFFFFEFFFFFFFFFFFF11
:1020E000FFFFFFFFFEFFFFFFFFFFFFFFFFFFFFFF01
:1020F000FFFFFFFFFFFFFFFFFFFEFFFFFFFEFFFFF2
:10210000FFFFFFFFFFFFFFFFFFFFFFFFFFFFFFFFDF
:10211000FFFFFFFFFFFEFFFFFFFFFFFFFFFFFFFFD0
:10212000FEFFFFFFFFFFFFFFFFFFFF95FFFFFFFF2A
:10213000FFFFFFFFFFFEFFFFFFFFFFFFFE9EFFFF12
:10214000FEFFFFFFFFFFFFFFFFFFFFFFFFFFFFFFA0
:10215000FFFEFFFFFFFEFFFFFFFFFFFFFEFFFFFF92
:10216000FFFFFFFFFFFFFFFFFFFFFFFFFFFFFFFF7F
:10217000FFFEFFFFFFFFFFFFFFFFFFFFFEFFFFFF71
:10218000FFFFFFFFFFFFFFFFFFFFFFFFFFFFFFFF5F
:10219000FFFFFFFFFFFEFFFFFFFFFFFFFFFFFFFF50
:1021A000FEFFFFFFFFFFFFFFFFFFFFFFFFFFFFFF40
:1021B000FFFFFFFFFFFEFFFFFFFFFFFFFFFFFFFF30
:1021C000FEFFFFFFFFFFFFFFFFFFFFFFFFFFFFFF20
:1021D000FFFFFFFFFFFEFFFFFFFFFFFFFFFFFFFF10
:1021E000FEFFFFFFFFFFFFFFFFFFFFFFFFFFFFFF00
:1021F000FFFFFFFFFFFFFFFFFFFEFFFFFFFFFFFFF0
:10220000FEFFFFFFFFFFFFFFFFFFFFFFFFFEFFFFE0
:10221000FFFFFFFFFEFFFFFFFFFFFFFF0EFFFFFFC0
:10222000FFFFFFFFFFFFFFFFFFFEFFFFFFFFFFFFBF
:10223000FFFFFFFFFEFFFFFFFFFFFFFFFFFFFFFFAF
:10224000FFFFFFFFFFFFFFFFFFFEFFFFFFFFFFFF9F
:10225000FFFFFFFFFEFFFFFFFFFFFFFFFFFFFFFF8F
:10226000FFFFFFFFFFFFFFFFFFFEFFFFFFFFFFFF7F
:10227000FFFFFFFFFEFFFFFFFFFFFFFFFFFFFFFF6F
:10228000FFFFFFFFFFFFFFFFFFFE45FFFFFEFFFF1A
:10229000FFFFFFFFFEFFFFFFFFFFFFFF4EFFFFFF00
:1022A000FFFFFFFFFFFFFFFFFFFEFFFFFFFFFFFF3F
:1022B000FFFFFFFFFEFFFFFFFFFFFFFFFFFFFFFF2F
:1022C000FFFFFFFFFFFFFFFFFFFFFFFFFFFEFFFF1F
:1022D000FFFFFFFFFF6AFFFFFEFFFFFFFFFFFFFFA4
:1022E000FFFFFFFFFFFFFF73FFFFFFFFFFFEFFFF8B
:1022F000FFFFFFFFFFFFFFFFFEFFFFFFFFFFFFFFEF
:10230000FFFFFFFFFEFFFFFFFFFFFFFFFFFFFFFFDE
:10231000FFFFFFFFFFFFFFFFFFFFFFFFFFFEFFFFCE
:10232000FFFFFFFFFEFFFFFFFFFFFFFFFFFFFFFFBE
:10233000FFFFFFFFFFFFFFFFFFFFFFFFFFFEFFFFAE
:10234000FFFFFFFFFEFFFFFFFFFFFFFFFFFFFFFF9E
:10235000FFFFFFFFFFFFFFFFFFFFFFFFFFFEFFFF8E
:10236000FFFFFFFFFEFFFFFFFFFFFFFFFFFFFFFF7E
:10237000FFFFFFB9FFFFFFFFFFFFFFFFFFFEFFFFB4
:10238000FFFFFFFFFFFFFFFFFFFFFFFFFFFFFFFF5D
:10239000FFFFFFFFFFFFFFFFFFFFFFFFFFFEFFFF4E
:1023A000FFFFFFFFFFFFFFFFFFFFFFFFFFFFFFFF3D
:1023B000FFFFFFFFFFFFFFFFFFFFFFFFFFFEFFFF2E
:1023C000FFFFFFFFFFFFFFFFFFFFFFFFFFFFFFFF1D
:1023D000FFFFFFFFFFFFFFFFFFFFFFFFFFFEFFFF0E
:1023E000FFFFFFFFFFFFFFFFFEFFFFFFFFFFFFFFFE
:1023F000FFFFFFFFFFFFFFFFFFFFFFFFFFFFFFFFED
:10240000FFFFFFFFFFFFFFFFFFFEFFFFFFFFFFFFDD
:10241000FFFFFFFFFEFFFFFFFFFFFFFFFFFFFFFFCD
:10242000FFFFFFFFFFFFFFFFFFFEFFFFFFFFFFFFBD
:10243000FFFFFFFFFEFFFFFFFFFFFFFFFFFFFFFFAD
:10244000FFFFFFFFFFFFFFFFFFFEFFFFFFFFFFFF9D
:10245000FFFFFFFFFEFFFFFFFFFFFFFFFFFFFFFF8D
:10246000FFFFFFFFFFFFFFFFFFFEFFFFFFFFFFFF7D
:10247000FEFFFFFFFFFFFFFFFFFFFFFFFFFFFFFF6D
:10248000FFFFFFFFFFFFFFFFFFFEFFFFFFFFFFFF5D
:10249000FFFFFFFFFEFFFFFFFFFFFFFFFFFFFFFF4D
:1024A000FFFFFFFFFFFFFFFFFFFEFFFFFFFFFFFF3D
:1024B000FFFFFFFFFEFFFFFFFFFFFFFFFFFFFFFF2D
:1024C000FFFFFFFFFFFFFFFFFFFEFFFFFFFFFFFF1D
:1024D000FFFFFFFFFEFFFFFFFFFFFFFFFFFFFFFF0D
:1024E000FFFFFFFFFFFFFFFFFFFFFFFFFFFEFFFFFD
:1024F000FFFFFFFFFEFFFFFFFEFFFFFFFFFFFFFFEE
:10250000FFFEFFFFFFFFFFFFFFFFFFFFFEFFFFFFDD
:10251000FFFFFFFFFFFFFFFFFFFFFFFFFFFFFFFFCB
:10252000FFFEFFFFFFFFFFFFFFFFFFFFFEFFFFFFBD
:10253000FFFFFFFFFFFFFFFFFFFFFFFFFFFFFFFFAB
:10254000FFFFFFFFFFFFFFFFFFFFFFFFFEFFFFFF9C
:10255000FFFFFFFFFFFFFFFFFFFFFFFFFFFFFFFF8B
:10256000FFFFFFFFFFFFFFFFFFFFFFFFFEFFFFFF7C
:10257000FFFFFFFFFFFFFFFFFFFFFFFFFFFFFFFF6B
:10258000FFFFFFFFFFFFFFFFFFFFFFFFFEFFFFFF5C
:10259000FFFFFFFFFFFFFFFFFFFFFFFFFFFFFFFF4B
:1025A000FFFFFFFFFFFEFFFFFFFFFFFFFEFFFFFF3D
:1025B000FFFFFFFFFFFFFFFFFFFFFFFFFFFFFFFF2B
:1025C000FFFFFFFFFFFEFFFFFFFFFFFFFEFFFFFF1D
:1025D000FFFFFFFFFFFFFFFFFFFFFFFFFFFFFFFF0B
:1025E000FFFFFFFFFFFEFFFFFFFFFFFFFFFFFFFFFC
:1025F000FEFFFFFFFFFFFFFFFFFFFFFFFFFFFFFFEC
:10260000FFFFFFFFFEFFFFFFFFFFFFFFFFFFFFFFDB
:10261000FFFFFFFFFFFFFFFFFFFFFFFFFFFEFFFFCB
:10262000FFFFFFFFFEFFFFFFFFFFFFFFFFFFFFFFBB
:10263000FFFFFFFFFFFFFFFFFFFFFFFFFFFEFFFFAB
:10264000FFFFFFFFFFFFFFFFFFFFFFFFFFFFFFFF9A
:10265000FFFFFFFFFFFFFFFFFFFFFFFFFFFEFFFF8B
:10266000FFFFFFFFFFFFFFFF34FFFFFFFFFFFFFF45
:10267000FFFFFFFFFFFFFFFFFFFFFFFFFFFEFFFF6B
:10268000FFFFFFFFFEFFFFFFFFFFFFFFFFFFFFFF5B
:10269000FFFFFFFFFFFFFFFFFFFFFFFFFFFEFFFF4B
:1026A000FFFFFFFFFFFFFFFFFFFFFFFFFFFFFFFF3A
:1026B000FFFFFFFFFFFFFFFFFFFFFFFFFFFEFFFF2B
:1026C000FFFFFFFFFFFFFFFFFFFFFFFFFFFFFFFF1A
:1026D000FFFFFFFFFFFFFFFFFFFFFFFFFFFEFFFF0B
:1026E000FFFFFFFFFFFFFFFFFEFFFFFFFFFFFFFFFB
:1026F000FFFFFFFFFFFFFFFFFFFFFFFFFFFFFFFFEA
:10270000FFFFFFFFFFFFFFFFFFFE85FFFFFEFFFF55
:10271000FFFFFFFFFEFFFFFFFFFFFFFF8EFFFFFF3B
:10272000FFFFFFFFFFFFFFFFFFFEFFFFFFFFFFFFBA
:10273000FFFFFFFFFEFFFFFFFFFFFFFFFFFFFFFFAA
:10274000FFFFFFFFFFFFFFFFFFFEFFFFFFFFFFFF9A
:10275000FFFFFFFFFEFFFFFFFFFFFFFFFFFFFFFF8A
:10276000FFFFFFFFFFFFFFFFFFFEFFFFFFFFFFFF7A
:10277000FFFFFFFFFEFFFFFFFFFFFFFFFFFFFFFF6A
:10278000FFFFFFFFFFFFFFFFFFFFC5FFFFFEFFFF94
:10279000FFFFFFFFFEFFFFFFFFFFFFFFCEFFFFFF7B
:1027A000FFFFFFFFFFFFFFFFFFFEFFFFFFFFFFFF3A
:1027B000FFFFFFFFFEFFFFFFFFFFFFFFFFFFFFFF2A
:1027C000FFFFFFFFFFFFFFFFFFFFFFFFFFFEFFFF1A
:1027D000FFFFFFFFFFFFFFFFFEFFFFFFFFFFFFFF0A
:1027E000FFFFFFFFFFFFFFFFFFFFFFFFFFFEFFFFFA
:1027F000FFFFFFFFFFFFFFFFFEFFFFFFFFFFFFFFEA
:10280000FFFFFFFFFFFFFFFFFFFFFFFFFFFFFFFFD8
:10281000FFFFFFFFFFFFFFFFFFFEFFFFFFFFFFFFC9
:10282000FFFFFFFFFFFFFFFFFFFFFFFFFFFFFFFFB8
:10283000FFFFFFFFFFFFFFFFFFFEFFFFFFFFFFFFA9
:10284000FFFFFFFFFFFFFFFFFFFFFFFFFFFFFFFF98
:10285000FFFFFFFFFFFFFFFFFFFEFFFFFFFFFFFF89
:10286000FFFFFFFFFFFFFFFFFFFFFFFFFFFFFFFF78
:10287000FFFFFFFFFFFFFFFFFFFEFFFFFFFFFFFF69
:10288000FEFFFFFFFEFFFFFFFFFFFFFFFFFFFFFF5A
:10289000FFFFFFFFFFFFFFFFFFFEFFFFFFFFFFFF49
:1028A000FFFFFFFFFEFFFFFFFFFFFFFFFFFFFFFF39
:1028B000FFFFFFFFFFFFFFFFFFFEFFFFFFFFFFFF29
:1028C000FFFFFFFFFEFFFFFFFFFFFFFFFFFFFFFF19
:1028D000FFFFFFFFFFFFFFFFFFFEFFFFFFFFFFFF09
:1028E000FFFFFFFFFEFFFFFFFFFFFFFFFFFFFFFFF9
:1028F000FFFFFF79FFFFFFFFFFFFFFFFFFFEFFFF6F
:10290000FFFFFFFFFFFFFFFFFFFEFFFFFFFFFFFFD8
:10291000FFFFFFFFFEFFFFFFFFFFFFFFFFFFFFFFC8
:10292000FFFFFFFFFFFFFFFFFFFEFFFFFFFFFFFFB8
:10293000FFFFFFFFFEFFFFFFFFFFFFFFFFFFFFFFA8
:10294000FFFFFFFFFFFFFFFFFFFEFFFFFFFFFFFF98
:10295000FFFFFFFFFEFFFFFFFFFFFFFFFFFFFFFF88
:10296000FFFFFFFFFFFFFFFFFFFEFFFFFFFFFFFF78
:10297000FFFFFFFFFEFFFFFFFFFFFFFFFFFFFFFF68
:10298000FFFFFFFFFFFFFFFFFFFEFFFFFFFFFFFF58
:10299000FFFFFFFFFEFFFFFFFFFFFFFFFFFFFFFF48
:1029A000FFFFFFFFFFFFFFFFFFFEFFFFFFFFFFFF38
:1029B000FFFFFFFFFEFFFFFFFFFFFFFFFFFFFFFF28
:1029C000FFFFFFFFFFFFFFFFFFFEFFFFFFFFFFFF18
:1029D000FFFFFFFFFEFFFFFFFFFFFFFFFFFFFFFF08
:1029E000FFFFFFFFFFFFFFFFFFFFFFFFFFFEFFFFF8
:1029F000FFFFFFFFFFFFFFFFFEFFFFFFFFFFFFFFE8
:102A0000FFFEFFFFFFFFFFFFFFFFFFFFFEFFFFFFD8
:102A1000FFFFFFFFFFFFFFFFFFFFFFFFFFFFFFFFC6
:102A2000FFFEFFFFFFFFFFFFFFFFFFFFFEFFFFFFB8
:102A3000FFFFFFFFFFFFFFFFFFFFFFFFFFFFFFFFA6
:102A4000FFFFFFFFFFFFFFFFFFFFFFFFFEFFFFFF97
:102A5000FFFFFFFFFFFFFFFFFFFFFFFFFFFFFFFF86
:102A6000FFFFFFFFFFFFFFFFFFFFFFFFFEFFFFFF77
:102A7000FFFFFFFFFFFFFFFFFFFFFFFFFFFFFFFF66
:102A8000FFFFFFFFFFFFFFFFFFFFFFFFFEFFFFFF57
:102A9000FFFFFFFFFFFFFFFFFFFFFFFFFFFFFFFF46
:102AA000FFFFFFFFFFFEFFFFFFFFFFFFFEFFFFFF38
:102AB000FFFFFFFFFFFFFFFFFFFFFFFFFFFFFFFF26
:102AC000FFFFFFFFFFFEFFFFFFFFFFFFFEFFFFFF18
:102AD000FFFFFFFFFFFFFFFFFFFFFFFFFFFFFFFF06
:102AE000FFFFFFFFFFFEFFFFFFFFFFFFFFFFFFFFF7
:102AF000FEFFFFFFFFFFFFFFFFFFFFFFFFFFFFFFE7
:102B0000FFFFFFFFFFFFFFFFFFFFFFFFFFFFFFFFD5
:102B1000FFFFFFFFFFFFFFFFFFFFFFFFFFFEFFFFC6
:102B2000FFFFFFFFFFFFFFFF94FFFFFFFFFFFFFF20
:102B3000FFFFFFFFFFFFFFFFFFFF9DFFFFFEFFFF08
:102B4000FFFFFFFFFFFFFFFFFFFFFFFFFFFFFFFF95
:102B5000FFFFFFFFFFFFFFFFFFFEFFFFFFFFFFFF86
:102B6000FFFFFFFFFFFFFFFFFFFFFFFFFFFFFFFF75
:102B7000FFFFFFFFFFFFFFFFFFFEFFFFFFFFFFFF66
:102B8000FFFFFFFFFEFFFFFFFFFFFFFFFFFFFFFF56
:102B9000FFFFFFFFFFFFFFFFFFFFFFFFFFFEFFFF46
:102BA000FFFFFFFFFFFFFFFFFFFFFFFFFFFFFFFF35
:102BB000FFFFFFFFFFFFFFFFFFFFFFFFFFFEFFFF26
:102BC000FFFFFFFFFFFFFFFFFFFFFFFFFFFFFFFF15
:102BD000FFFFFFFFFFFFFFFFFFFFFFFFFFFEFFFF06
:102BE000FFFFFFFFFFFFFFFFFEFFFFFFFFFFFFFFF6
:102BF000FFFFFFFFFFFFFFFFFFFFFFFFFFFFFFFFE5
:102C0000FFFFFFFFFFFFFFFFFFFEFFFFFFFFFFFFD5
:102C1000FFFFFFFFFEFFFFFFFFFFFFFFFFFFFFFFC5
:102C2000FFFFFFFFFFFFFFFFFFFEFFFFFFFFFFFFB5
:102C3000FFFFFFFFFEFFFFFFFFFFFFFFFFFFFFFFA5
:102C4000FFFFFFFFFFFFFFFFFFFEFFFFFFFFFFFF95
:102C5000FFFFFFFFFEFFFFFFFFFFFFFFFFFFFFFF85
:102C6000FFFFFFFFFFFFFFFFFFFEFFFFFFFFFFFF75
:102C7000FEFFFFFFFEFFFFFFFFFFFFFFFFFFFFFF66
:102C8000FFFFFFFFFFFFFFFFFFFEFFFFFFFFFFFF55
:102C9000FFFFFFFFFEFFFFFFFFFFFFFFFFFFFFFF45
:102CA000FFFFFFFFFFFFFFFFFFFEFFFFFFFFFFFF35
:102CB000FFFFFFFFFEFFFFFFFFFFFFFFFFFFFFFF25
:102CC000FFFFFFFFFFFFFFFFFFFEFFFFFFFFFFFF15
:102CD000FFFFFFFFFEFFFFFFFFFFFFFFFFFFFFFF05
:102CE000FFFFFFFFFFFFFFFFFFFF75FFFFFEFFFF7F
:102CF000FFFFFFFFFEFFFFFFFFFFFFFF7EFFFFFF66
:102D0000FFFEFFFFFFFFFFFFFFFFFFFFFEFFFFFFD5
:102D1000FFFFFFFFFFFFFFFFFFFFFFFFFFFFFFFFC3
:102D2000FFFEFFFFFFFFFFFFFFFFFFFFFEFFFFFFB5
:102D3000FFFFFFFFFFFFFFFFFFFFFFFFFFFFFFFFA3
:102D4000FFFFFFFFFFFFFFFFFEFFFFFFFEFFFFFF95
:102D5000FFFFFFFFFFFFFFFFFFFFFFFFFFFFFFFF83
:102D6000FFFFFFFFFFFFFFFFFEFFFFFFFFFFFFFF74
:102D7000B8FFFFFFFFFFFFFFFFFFFFFFFFFFFFFFAA
:102D8000FFFEC1FFFFFFFFFFFFFFFFFFFEFFFFFF93
:102D9000FFFFFFFFFFFFFFFFFFFFFFFFFFFFFFFF43
:102DA000FFFFFFFFFFFEFFFFFFFFFFFFFEFFFFFF35
:102DB000FFFFFFFFFFFFFFFFFFFFFFFFFFFFFFFF23
:102DC000FFFFFFFFFFFEFFFFFFFFFFFFFEFFFFFF15
:102DD000FFFFFFFFFFFFFFFFFFFFFFFFFFFFFFFF03
:102DE000FFFFFFFFFFFEFFFFFFFFFFFFFEFFFFFFF5
:102DF000FFFFFFFFFAFFFFFFFFFFFFFFFFFFFFFFE8
:102E000000FFFFFFFFFFFFFFFFFFFFFFFFFFFFFFD1
:102E1000FFFE09FFFFFEFFFFFFFFFFFFFEFFFFFFBB
:102E2000FFFFFFFFFFFFFFFFFFFFFFFFFFFFFFFFB2
:102E3000FFFEFFFFFFFFFFFFFFFFFFFFFEFFFFFFA4
:102E4000FFFFFFFFFFFFFFFFFFFFFFFFFFFFFFFF92
:102E5000FFFEFFFFFFFFFFFFFFFFFFFFFEFFFFFF84
:102E6000FFFFFFFFFFFFFFFFFFFFFFFFFFFFFFFF72
:102E7000FFFEFFFFFFFFFFFFFFFFFFFFFEFFFFFF64
:102E8000FFFFFFFFFFFFFFFFFFFFFFFFFFFFFFFF52
:102E9000FFFFFFFFFFFEFFFFFFFFFFFFFEFFFFFF44
:102EA000FFFFFFFFFFFFFFFFFFFFFFFFFFFFFFFF32
:102EB000FFFEFFFFFFFFFFFFFFFFFFFFFEFFFFFF24
:102EC000FFFFFFFFFFFFFFFFFFFFFFFFFFFFFFFF12
:102ED000FFFFFFFFFFFEFFFFFFFFFFFFFFFFFFFF03
:102EE000FEFFFFFFFFFFFFFFFFFFFFFFFFFFFFFFF3
:102EF000FFFFFFFFFFFEFFFFFFFFFFFFFFFFFFFFE3
:102F0000FEFFFFFFFFFFFFFFFFFE85FFFFFEFFFF4E
:102F1000FFFFFFFFFEFFFFFFFFFFFFFF8EFFFFFF33
:102F2000FFFFFFFFFFFFFFFFFFFEFFFFFFFFFFFFB2
:102F3000FFFFFFFFFEFFFFFFFFFFFFFFFFFFFFFFA2
:102F4000FFFFFFFFFFFFFFFFFFFEFFFFFFFFFFFF92
:102F5000FFFFFFFFFEFFFFFFFFFFFFFFFFFFFFFF82
:102F6000FFFFFFFFFFFFFFFFFFFEFFFFFFFFFFFF72
:102F7000FFFFFFFFFEFFFFFFFFFFFFFFFFFFFFFF62
:102F8000FFFFFFFFFFFFFFFFFFFFFFFFFFFEFFFF52
:102F9000FFFFFFFFFFFFFFFFFEFFFFFFFFFFFFFF42
:102FA000FFFFFFFFFFFFFFFFFFFFFFFFFFFEFFFF32
:102FB000FFFFFFFFFEDAFFFFFEFFFFFFFFFFFFFF48
:102FC000FFFFFFFFFFFFFFE3FFFFFFFFFFFEFFFF2E
:102FD000FFFFFFFFFFFFFFFFFEFFFFFFFFFFFFFF02
:102FE000FFFFFFFFFFFFFFFFFFFFFFFFFFFEFFFFF2
:102FF000FFFFFFFFFFFFFFFFFEFFFFFFFFFFFFFFE2
:10300000FFFFFFFFFFFFFFFFFFFEFFFFFFFFFFFFD1
:10301000FFFFFFFFFEFFFFFFFFFFFFFFFFFFFFFFC1
:10302000FFFFFFFFFFFFFFFFFFFEFFFFFFFFFFFFB1
:10303000FEFFFFFFFEFFFFFFFFFFFFFFFFFFFFFFA2
:10304000FFFFFFFFFFFEFFFFFFFEFFFFFFFFFFFF92
:10305000FEFFFFFFFFFFFFFFFFFFFFFFFFFFFFFF81
:10306000FFFFFFFFFFFEFFFFFFFFFFFFFFFFFFFF71
:10307000FEFFFFFFFFFFFFFFFFFFFFFFFFFFFFFF61
:10308000FFFFFFFFFFFFFFFFFFFEFFFFFFFFFFFF51
:10309000FFFFFFFFFEFFFFFFFFFFFFFFFFFFFFFF41
:1030A000FFFFFFFFFFFFFFFFFFFEFFFFFFFFFFFF31
:1030B000FFFFFFFFFEFFFFFFFFFFFFFFFFFFFFFF21
:1030C000FFFFFFFFFFFFFFFFFFFEFFFFFFFFFFFF11
:1030D000FFFFFFFFFEFFFFFFFFFFFFFFFFFFFFFF01
:1030E000FFFFFFFFFFFFFFFFFFFFFFFFFFFEFFFFF1
:1030F000FFFFFFFFFE7AFFFFFEFFFFFFFFFFFFFF67
:10310000FFFFFFFFFFFFFFFFFFFFFFFFFFFFFFFFCF
:10311000FFFFFFFFFFFEFFFFFFFFFFFFFFFFFFFFC0
:10312000FEFFFFFFFFFFFFFFFFFFFFFFFFFFFFFFB0
:10313000FFFFFFFFFFFEFFFFFFFFFFFFFFFFFFFFA0
:10314000FEFFFFFFFFFFFFFFFFFFFFFFFFFFFFFF90
:10315000FFFFFFFFFFFEFFFFFFFFFFFFFFFFFFFF80
:10316000FEFFFFFFFFFFFFFFFFFFFFFFFFFFFFFF70
:10317000FFFFFFFFFFFEFFFFFFFFFFFFFFFFFFFF60
:10318000FEFFFFFFFFFFFFFFFFFFFFFFFFFFFFFF50
:10319000FFFFFFFFFFFEFFFFFFFFFFFFFFFFFFFF40
:1031A000FEFFFFFFFFFFFFFFFFFFFFFFFFFFFFFF30
:1031B000FFFFFFFFFFFEFFFFFFFFFFFFFFFFFFFF20
:1031C000FEFFFFFFFFFFFFFFFFFFFFFFFFFFFFFF10
:1031D000FFFFFFFFFFFEEBFFFFFEFFFFFFFFFFFF15
:1031E000FEFFFFFFFFFFFFFFFFFFFFFFFFFFFFFFF0
:1031F000FFFFFFFFFFFFFFFFFFFEFFFFFFFFFFFFE0
:10320000FFFFFFFFFFFEFFFFFFFFFFFFFFFFFFFFCF
:10321000FEFFFFFFFFFFFFFFFFFFFFFFFFFFFFFFBF
:10322000FFFFFFFFFFFEFFFFFFFFFFFFFFFFFFFFAF
:10323000FEFFFFFFFFFFFFFFFFFFFFFFFFFFFF1F7F
:10324000FFFFFFFFFFFEFFFFFFFFFFFFFEFFFFFF90
:10325000FFFFFFFF2AFFFFFFFFFFFFFFFFFFFFFF53
:10326000FFFFFFFFFFFFFFFFFFFFFFFFFEFFFFFF6F
:10327000FFFFFFFFFFFFFFFFFFFFFFFFFFFFFFFF5E
:10328000FFFFFFFFFFFEFFFFFFFFFFFFFFFFFFFF4F
:10329000FEFFFFFFFFFFFFFFFFFFFFFFFFFFFFFF3F
:1032A000FFFFFFFFFFFFFFFFFFFFFFFFFFFFFFFF2E
:1032B000FEFFFFFFFFFFFFFFFFFFFFFFFFFFFFFF1F
:1032C000FFFFFFFFFFFFFFFFFFFFFFFFFFFFFFFF0E
:1032D000FEFFFFFFFFFFFFFFFFFFFFFFFFFFFFFFFF
:1032E000FFFFFFFFFFFFFFFFFFFEFFFFFFFFFFFFEF
:1032F000FEFFFFFFFFFFFFFFFFFFFFFFFFFFFFFFDF
:10330000FFFFFFFFFFFFFFFFFFFFFF85FFFFFFFF47
:10331000FFFFFFFFFFFEFFFFFFFFFFFFFF8EFFFF2F
:10332000FEFFFFFFFFFFFFFFFFFFFFFFFFFFFFFFAE
:10333000FFFF99FFFFFEFFFFFFFFFFFFFFFFFFFF04
:10334000FFFFFFFFFFFFFFFFFFFFFFFFFFFFFFFF8D
:10335000FFFEFFFFFFFFFFFFFFFFFFFFFEFFFFFF7F
:10336000FFFFFFFFFFFFFFFFFFFFFFFFFFFFFFFF6D
:10337000FFFEFFFFFFFFFFFFFFFFFFFFFEFFFFFF5F
:10338000FFFFFFFFFFFFFFFFFFFFFFFFFFFFFFFF4D
:10339000FFFFFFFFFFFEFFFFFFFFFFFFFFFFFFFF3E
:1033A000FEFFFFFFFFFFFFFFFFFFFFFFFFFFFFFF2E
:1033B000FFFFFFFFFFFEFFFFFFFFFFFFFFFFFFFF1E
:1033C000FEFFFFFFFFFFFFFFFFFFFFFFFFFFFFFF0E
:1033D000FFFFFFFFFFFEFFFFFFFFFFFFFFFFFFFFFE
:1033E000FEFFFFFFFFFFFFFFFFFFFFFFFFFFFFFFEE
:1033F000FFFFFFFFFFFEFFFFFFFFFFFFFFFFFFFFDE
:10340000FEFFFFFFFFFFFFFFFFFEFFFFFFFFFFFFCE
:10341000FFFFFFFFFEFFFFFFFFFFFFFFFFFFFFFFBD
:10342000FFFFFFFFFFFFFFFFFFFEFFFFFFFFFFFFAD
:10343000FFFFFFFFFEFFFFFFFFFFFFFFFFFFFFFF9D
:10344000FFFFFFFFFFFFFFFFFFFEFFFFFFFFFFFF8D
:10345000FFFFFFFFFEFFFFFFFFFFFFFFFFFFFFFF7D
:10346000FFFFFFFFFFFFFFFFFFFEFFFFFFFFFFFF6D
:10347000FFFFFFFFFEFFFFFFFFFFFFFFFFFFFFFF5D
:10348000FFFFFFFFFFFFFFFFFFFF45FFFFFEFFFF07
:10349000FFFFFFFFFEFFFFFFFFFFFFFFFFFFFFFF3D
:1034A000FFFFFFFFFFFFFFFFFFFEFFFFFFFFFFFF2D
:1034B000FFFFFFFFFEFFFFFFFFFFFFFFFFFFFFFF1D
:1034C000FFFFFFFFFFFFFFFFFFFFFFFFFFFEFFFF0D
:1034D000FFFFFFFFFFFFFFFFFEFFFFFFFFFFFFFFFD
:1034E000FFFFFFFFFFFFFFFFFFFFFFFFFFFEFFFFED
:1034F000FFFFFFFFFFFFFFFFFEFFFFFFFFFFFFFFDD
:10350000FFFFFFFFFEFFFFFFFFFFFFFFFFFFFFFFCC
:10351000FFFFFFFFFFFFFFFFFFFFFFFFFFFEFFFFBC
:10352000FFFFFFFFFEFFFFFFFFFFFFFFFFFFFFFFAC
:10353000FFFFFFFFFFFFFFFFFFFFFFFFFFFEFFFF9C
:10354000FFFFFFFFFEFFFFFFFFFFFFFFFFFFFFFF8C
:10355000FFFFFFFFFFFFFFFFFFFFFFFFFFFEFFFF7C
:10356000FFFFFFFFFEFFFFFFFFFFFFFFFFFFFFFF6C
:10357000FFFFFFFFFFFFFFFFFFFFFFFFFFFEFFFF5C
:10358000FFFFFFFFFFC2FFFFFEFFFFFFFFFFFFFF89
:10359000FFFFFFFFFFFFFFCBFFFFFFFFFFFFFFFF6F
:1035A000FFFEFFFFFFFFFFFFFFFFFFFFD6FFFFFF55
:1035B000FFFFFFFFFFFFFFFFFFFFFFFFFFFEFFFF1C
:1035C000FFFEFFFFFFFFFFFFFEFFFFFFFFFFFFFF0D
:1035D000FFFFFFFFFFFFFFFFFFFFFFFFFFFFFFFFFB
:1035E000FFFEFFFFFFFFFFFFFFFFFFFFFFFFFFFFEC
:1035F000FFFFFFFFFFFFFFFFFFFFFFFFFFFFFFFFDB
:10360000FFFFFFFFFFFFFFFFFFFFFFFFFFFEFFFFCB
:10361000FFFFFFFFFFFFFFFFFEFFFFFFFFFFFFFFBB
:10362000FFFFFFFFFFFFFFFFFFFFFFFFFFFEFFFFAB
:10363000FFFFFFFFFFFFFFFFFEFFFFFFFFFFFFFF9B
:10364000FFFFFFFFFFFFFFFFFFFFFFFFFFFEFFFF8B
:10365000FFFFFFFFFEFFFFFFFFFFFFFFFFFFFFFF7B
:10366000FFFFFFFFFFFFFFFFFFFEFFFFFFFFFFFF6B
:10367000FFFFFFFFFEFFFFFFFFFFFFFFFFFFFFFF5B
:10368000FFFFFFFFFFFFFFFFFFFFFFFFFFFEFFFF4B
:10369000FFFFFFFFFFFFFFFFFEFFFFFFFFFFFFFF3B
:1036A000FFFFFFFFFFFFFFFFFFFFFFFFFFFEFFFF2B
:1036B000FFFFFFFFFF5AFFFFFEFFFFFFFFFFFFFFC0
:1036C000FFFFFFFFFFFFFF63FFFFFFFFFFFEFFFFA7
:1036D000FFFFFFFFFFFFFFFFFEFFFFFFFFFFFFFFFB
:1036E000FFFFFFFFFFFFFFFFFFFFFFFFFFFEFFFFEB
:1036F000FFFFFFFFFFFFFFFFFEFFFFFFFFFFFFFFDB
:10370000FFFFFFFFFFFFFFFFFFFFFFFFFFFFFFFFC9
:10371000FFFFFFFFFFFFFFFFFFFEFFFFFFFFFFFFBA
:10372000FFFFFFFFFFFFFFFFFFFFFFFFFFFFFFFFA9
:10373000FFFFFFFFFFFFFFFFFFFEFFFFFFFFFFFF9A
:10374000FFFFFFFFFFFFFFFFFFFFFFFFFFFFFFFF89
:10375000FFFFFFFFFFFFFFFFFFFEFFFFFFFFFFFF7A
:10376000FFFFFFFFFFFFFFFFFFFFFFFFFFFFFFFF69
:10377000FFFFFFFFFFFFFFFFFFFEFFFFFFFFFFFF5A
:10378000FFFFFFFFFEFFFFFFC4FFFFFFFFFFFFFF85
:10379000FFFFFFFFFFFFFFFFFFFFCDFFFFFEFFFF6C
:1037A000FFFFFFFFFEFFFFFFFFFFFFFFFFFFFFFF2A
:1037B000FFFFFFFFFFFFFFFFFFFEFFFFFFFFFFFF1A
:1037C000FFFFFFFFFEFFFFFFFFFFFFFFFFFFFFFF0A
:1037D000FFFFFFFFFFFFFFFFFFFFFFFFFFFEFFFFFA
:1037E000FFFFFFFFFEFFFFFFFFFFFFFFFFFFFFFFEA
:1037F000FFFFFFFFFFFFFFFFFFFFFFFFFFFEFFFFDA
:10380000FFFFFFFFFFFEFFFFFFFFFFFFFEFFFFFFCA
:10381000FEFFFFFFFFFFFFFFFFFFFFFFFFFFFF0FA9
:10382000FFFE11FFFFFEFFFFFFFFFFFFFEFFFFFF99
:10383000FFFFFFFFFFFFFFFFFFFFFFFFFFFFFFFF98
:10384000FFFFFFFFFFFFFFFFFFFFFFFFFEFFFFFF89
:10385000FFFFFFFFFFFFFFFFFFFFFFFFFFFFFFFF78
:10386000FFFFFFFFFFFFFFFFFFFFFFFFFEFFFFFF69
:10387000FFFFFFFFFFFFFFFFFFFFFFFFFFFFFFFF58
:10388000FFFFFFFFFFFEFFFFFFFFFFFFFFFFFFFF49
:10389000FEFFFFFFFFFFFFFFFFFFFFFFFFFFFFFF39
:1038A000FFFFFFFFFFFFFFFFFFFFFFFFFEFFFFFF29
:1038B000FFFFFFFFFFFFFFFFFFFFFFFFFFFFFFFF18
:1038C000FFFFFFFFFFFEFFFFFFFFFFFFFFFFFFFF09
:1038D000FEFFFFFFFFFFFFFFFFFFFFFFFFFFFFFFF9
:1038E000FFFFFFFFFFFFFFFFFFFEFFFFFFFFFFFFE9
:1038F000FEFFFFFFFFFFFFFFFFFFFFFFFFFFFFFFD9
:10390000FFFFFFFFFFFFFFFFFFFFFFFFFFFFFFFFC7
:10391000FFFFFFFFFFFEFFFFFFFFFFFFFFFFFFFFB8
:10392000FEFFFFFFFFFFFFFFFFFFFFFFFFFFFFFFA8
:10393000FFFFFFFFFFFEFFFFFFFFFFFFFFFFFFFF98
:10394000FEFFFFFFFFFFFFFFFFFFFFFFFFFFFFFF88
:10395000FFFFFFFFFFFEFFFFFFFFFFFFFFFFFFFF78
:10396000FEFFFFFFFFFFFFFFFFFFFFB5FFFFFFFFB2
:10397000FFFFFFFFFFFEFFFFFFFFFFFFFEBEFFFF9A
:10398000FEFFFFFFFFFFFFFFFFFFFFFFFFFFFFFF48
:10399000FFFFFFFFFFFEFFFFFFFFFFFFFFFFFFFF38
:1039A000FEFFFFFFFFFFFFFFFFFFFFFFFFFFFFFF28
:1039B000FFFFFFFFFFFEFFFFFFFFFFFFFFFFFFFF18
:1039C000FEFFFFFFFFFFFFFFFFFFFFFFFFFFFFFF08
:1039D000FFFFFFFFFFFEFFFFFFFFFFFFFFFFFFFFF8
:1039E000FEFFFFFFFFFFFFFFFFFFFFFFFFFFFFFFE8
:1039F000FFFFFFFFFFFFFFFFFFFEFFFFFFFFFFFFD8
:103A0000FFFFFFFFFFFFFFFFFFFFFFFFFFFFFFFFC6
:103A1000FFFFFFFFFEFFFFFFFFFFFFFFFFFFFFFFB7
:103A2000FFFFFFFFFFFFFFFFFFFEFFFFFFFFFFFFA7
:103A3000FFFFFFFFFEFFFFFFFFFFFFFFFFFFFFFF97
:103A4000FFFFFFFFFFFFFFFFFFFEFFFFFFFFFFFF87
:103A5000FFFFFFFFFEFFFFFFFFFFFFFFFFFFFFFF77
:103A6000FFFFFFFFFFFFFFFFFFFEFFFFFFFFFFFF67
:103A7000FFFFFFFFFEFFFFFFFFFFFFFFFFFFFFFF57
:103A8000FFFFFFFFFFFFFFFFFFFFFFFFFFFEFFFF47
:103A9000FFFFFFFFFFFFFFFFFEFFFFFFFFFFFFFF37
:103AA000FFFFFFFFFFFFFFFFFFFFFFFFFFFEFFFF27
:103AB000FFFFFFFFFFFFFFFFFFFFFFFFFFFFFFFF16
:103AC000FFFFFFFFFFFFFFFFFFFFFFFFFFFEFFFF07
:103AD000FFFFFFFFFFFFFFFFFEFFFFFFFFFFFFFFF7
:103AE000FFFFFFFFFFFFFFFFFFFFFFFFFFFEFFFFE7
:103AF000FFFFFFFFFFFFFFFFFEFFFFFFFFFFFFFFD7
:103B0000FF80FFFFFEFFFFFFFFFFFFFFFFFFFFFF45
:103B1000FFFFFF89FFFFFFFFFFFFFFFFFFFEFFFF2C
:103B2000FFFFFFFFFFFFFFFF94FFFFFFFFFFFFFF10
:103B3000FFFFFFFFFFFFFFFFFFFF9DFFFFFEFFFFF8
:103B4000FFFFFFFFFFFFFFFFFFFFFFFFFFFFFFFF85
:103B5000FFFFFFFFFFFFFFFFFFFEFFFFFFFFFFFF76
:103B6000FFFFFFFFFFFFFFFFFFFFFFFFFFFFFFFF65
:103B7000FFFFFFFFFFFFFFFFFFFEFFFFFFFFFFFF56
:103B8000FFFFFFFFFEFFFFFFFFFFFFFFFFFFFFFF46
:103B9000FFFFFFFFFFFFFFFFFFFFFFFFFFFEFFFF36
:103BA000FFFFFFFFFFD2FFFFFFFFFFFFFFFFFFFF52
:103BB000FFFFFFFFFFFFFFFFFFFFDDFFFFFEFFFF38
:103BC000FFFFFFFFFFFFFFFFFFFFFFFFFFFFFFFF05
:103BD000FFFFFFFFFFFFFFFFFFFFFFFFFFFEFFFFF6
:103BE000FFFFFFFFFFFFFFFFFEFFFFFFFFFFFFFFE6
:103BF000FFFFFFFFFFFFFFFFFFFFFFFFFFFEFFFFD6
:103C0000FFFFFFFFFFFEFFFFFFFFFFFFFFFFFFFFC5
:103C1000FEFFFFFFFFFFFFFFFFFFFFFFFFFFFFFFB5
:103C2000FFFFFFFFFFFEFFFFFFFFFFFFFEFFFFFFA6
:103C3000FEFFFFFFFFFFFFFFFFFFFFFFFFFFFF1F75
:103C4000FFFFFFFFFFFEFFFFFFFFFFFFFEFFFFFF86
:103C5000FFFFFFFF2AFFFFFFFFFFFFFFFFFFFFFF49
:103C6000FFFFFFFFFFFFFFFFFFFFFFFFFEFFFFFF65
:103C7000FFFFFFFFFFFFFFFFFFFFFFFFFFFFFFFF54
:103C8000FFFFFFFFFFFEFFFFFFFFFFFFFFFFFFFF45
:103C9000FEFFFFFFFFFFFFFFFFFFFFFFFFFFFFFF35
:103CA000FFFFFFFFFFFFFFFFFFFFFFFFFF56FFFFCD
:103CB000FEFFFFFFFFFFFFFFFFFFFFFFFFFFFFFF15
:103CC000FFFFFFFFFFFFFFFFFFFFFFFFFFFFFFFF04
:103CD000FEFFFFFFFFFFFFFFFFFFFFFFFFFFFFFFF5
:103CE000FFFFFFFFFFFFFFFFFFFEFFFFFFFFFFFFE5
:103CF000FEFFFFFFFFFFFFFFFFFFFFFFFFFFFFFFD5
:103D0000FFFFFFFFFFFFFFFFFFFFFFFFFFFEFFFFC4
:103D1000FFFFFFFFFFFFFFFFFEFFFFFFFFFFFFFFB4
:103D2000FFFFFFFFFFFFFFFFFFFFFFFFFFFEFFFFA4
:103D3000FFFFFFFFFFFFFFFFFEFFFFFFFFFFFFFF94
:103D4000FFFFFFFFFFFFFFFFFFFFFFFFFFFEFFFF84
:103D5000FFFFFFFFFFFFFFFFFEFFFFFFFFFFFFFF74
:103D6000FFFFFFFFFFFFFFFFFFFFFFFFFFFEFFFF64
:103D7000FFFFFFFFFFFFFFFFFEFFFFFFFFFFFFFF54
:103D8000FFFFFFFFFFFFFFFFFFFFFFFFFFFEFFFF44
:103D9000FFFFFFFFFFFFFFFFFEFFFFFFFFFFFFFF34
:103DA000FFFFFFFFFFFFFFFFFFFFFFFFFFFEFFFF24
:103DB000FFFFFFFFFFFFFFFFFEFFFFFFFFFFFFFF14
:103DC000FFFFFFFFFFFFFFFFFFFFFFFFFFFEFFFF04
:103DD000FFFFFFFFFFFFFFFFFEFFFFFFFFFFFFFFF4
:103DE000FFFFFFFFFFFFFFFFFFFFFFFFFFFFFFFFE3
:103DF000FFFEFFFFFFFFFFFFFFFFFFFFFEFFFFFFD5
:103E0000FFFEFFFFFFFFFFFFFFFFFFFFFEFFFFFFC4
:103E1000FFFFFFFFFFFFFFFFFFFFFFFFFFFFFFFFB2
:103E2000FFFEFFFFFFFFFFFFFFFFFFFFFEFFFFFFA4
:103E3000FFFFFFFFFFFFFFFFFFFFFFFFFFFFFFFF92
:103E4000FFFFFFFFFFFFFFFFFFFFFFFFFEFFFFFF83
:103E5000FFFFFFFFFFFFFFFFFFFFFFFFFFFFFFFF72
:103E6000FFFFFFFFFFFFFFFFFFFFFFFFFEFFFFFF63
:103E7000FFFFFFFFFFFFFFFFFFFFFFFFFFFFFFFF52
:103E8000FFFFFFFFFFFFFFFFFFFFFFFFFEFFFFFF43
:103E9000FFFFFFFFFFFFFFFFFFFFFFFFFFFFFFFF32
:103EA000FFFFFFFFFFFEFFFFFFFFFFFFFEFFFFFF24
:103EB000FFFFFFFFFFFFFFFFFFFFFFFFFFFFFFFF12
:103EC000FFFFFFFFFFFEFFFFFFFFFFFFFEFFFFFF04
:103ED000FFFFFFFFFFFFFFFFFFFFFFFFFFFFFFFFF2
:103EE000FFFFFFFFFFFEFFFFFFFFFFFFFFFFFFFFE3
:103EF000FEFFFFFFFFFFFFFFFFFFFFFFFFFFFFFFD3
:103F0000FFFFFFFFFFFFFFFFFFFFFFFFFFFFFFFFC1
:103F1000FFFFFFFFFFFEFFFFFFFEFFFFFFFFFFFFB3
:103F2000FEFFFFFFFFFFFFFFFFFFFFFFFFFFFFFFA2
:103F3000FFFFFFFFFFFEFFFFFFFFFFFFFFFFFFFF92
:103F4000FEFFFFFFFFFFFFFFFFFFFFFFFFFFFFFF82
:103F5000FFFFFFFFFFFEFFFFFFFFFFFFFFFFFFFF72
:103F6000FEFFFFFFFFFFFFFFFFFFFFFFFFFFFFFF62
:103F7000FFFFFFFFFFFEFFFFFFFFFFFFFFFFFFFF52
:103F8000FEFFFFFFFFFFFFFFFFFFFFFFFFFFFFFF42
:103F9000FFFFFFFFFFFFFFFFFFFEFFFFFFFFFFFF32
:103FA000FFFFFFFFFEFFFFFFFFFFFFFFFFFFFFFF22
:103FB000FFFFFFFFFFFFFFFFFFFEFFFFFFFFFFFF12
:103FC000FFE0FFFFFEFFFFFFFFFFFFFFFFFFFFFF21
:103FD000FFFFFFFFFFFFFFFFFFFEFFFFFFFFFFFFF2
:103FE000FFFFFFFFFEFFFFFFFFFFFFFFFFFFFFFFE2
:103FF000FFFFFFFFFFFFFFFFFFFEFFFFFFFFFFFFD2
:10400000FFFEFFFFFFFFFFFFFEFFFFFFFEFFFFFFC3
:10401000FFFFFFFFFFFFFFFFFFFFFFFFFFFFFFFFB0
:10402000FFFEFFFFFFFFFFFFFEFFFFFFFFFFFFFFA2
:10403000FFFFFFFFFFFFFFFFFFFFFFFFFFFFFFFF90
:10404000FFFEFFFFFFFFFFFFFEFFFFFFFFFFFFFF82
:10405000FFFFFFFFFFFFFFFFFFFFFFFFFFFFFFFF70
:10406000FFFEFFFFFFFFFFFFFEFFFFFFFFFFFFFF62
:10407000FFFFFFFFFFFFFFFFFFFFFFFFFFFFFFFF50
:10408000FFFEFFFFFFFFFFFFFE44FFFFFEFFFFFFFE
:10409000FFFFFFFFFFFFFFFFFFFFFFFFFFFFFFFF30
:1040A000FFFFFFFFFFFEFFFFFEFFFFFFFFFFFFFF22
:1040B00058FFFFFFFFFFFFFFFFFFFFFFFFFFFFFFB7
:1040C000FFFE61FFFFFEFFFFFFFFFFFFFEFFFFFFA1
:1040D000FFFFFFFFFFFFFFFFFFFFFFFFFFFFFFFFF0
:1040E000FFFFFFFFFFFEFFFFFFFFFFFFFEFFFFFFE2
:1040F000FFFFFFFFFFFFFFFFFFFFFFFFFFFFFFFFD0
:10410000FFFFFFFFFFFFFFFFFFFEFFFFFFFFFFFFC0
:10411000FFFFFFFFFEFFFFFFFFFFFFFFFFFFFFFFB0
:10412000FFFFFFFFFFFFFFFFFFFEFFFFFFFFFFFFA0
:10413000FFFFFFFFFEFFFFFFFFFFFFFFFFFFFFFF90
:10414000FFFFFFFFFFFFFFFFFFFEFFFFFFFFFFFF80
:10415000FFFFFFFFFEFFFFFFFFFFFFFFFFFFFFFF70
:10416000FFFFFFFFFFFFFFFFFFFEFFFFFFFFFFFF60
:10417000FFFFFFFFFEFFFFFFFFFFFFFFFFFFFFFF50
:10418000FFFFFFFFFFFFFFFFFFFEFFFFFFFFFFFF40
:10419000FFFFFFFFFEFFFFFFFFFFFFFFFFFFFFFF30
:1041A000FFFFFFFFFFFFFFFFFFFEFFFFFFFFFFFF20
:1041B000FFFFFFFFFEFFFFFFFFFFFFFFFFFFFFFF10
:1041C000FFFFFFFFFFFFFFFFFFFEFFFFFFFFFFFF00
:1041D000FFFFFFFFFEFFFFFFFFFFFFFFFFFFFFFFF0
:1041E000FFFFFFFFFFFFFFFFFFFFFFFFFFFEFFFFE0
:1041F000FFFFFFFFFFFFFFFFFEFFFFFFFFFFFFFFD0
:10420000FFFFFFFFFFFFFFFFFFFFFFFFFFFFFFFFBE
:10421000FFFEFFFFFFFFFFFFFFFFFFFFFEFFFFFFB0
:10422000FFFFFFFFFFFFFFFFFFFFFFFFFFFFFFFF9E
:10423000FFFEFFFFFFFFFFFFFFFFFFFFFEFFFFFF90
:10424000FFFFFFFFFFFFFFFFFFFFFFFFFFFFFFFF7E
:10425000FFFEFFFFFFFFFFFFFFFFFFFFFEFFFFFF70
:10426000FFFFFFFFFFFFFFFFFFFFFFFFFFFFFFFF5E
:10427000FFFEFFFFFFFFFFFFFFFFFFFFFEFFFFFF50
:10428000FFFFFFFFFFFFFFFFFFFFFFFFFFFFFFFF3E
:10429000FFFEFFFFFFFFFFFFFFFFFFFFFEFFFFFF30
:1042A000FFFFFFFFFFFFFFFFFFFFFFFFFFFFFFFF1E
:1042B000FFFEFFFFFFFFFFFFFFFFFFFFFEFFFFFF10
:1042C000FFFFFFFFFFFFFFFFFFFFFFFFFFFFFFFFFE
:1042D000FFFEFFFFFFFFFFFFFFFFFFFFFEFFFFFFF0
:1042E000FFFFFFFFFFFFFFFFFFFFFFFFFFFFFFFFDE
:1042F000FFFFFFFFFFFEFFFFFFFFFFFFFFFFFFFFCF
:10430000FEFFFFFFFFFFFFFFFFFEFFFFFFFFFFFFBF
:10431000FFFFFFFFFEFFFFFFFFFFFFFFFFFFFFFFAE
:10432000FFFFFFFFFFFFFFFFFFFEFFFFFFFFFFFF9E
:10433000FF98FFFFFEFFFFFFFFFFFFFFFFFFFFFFF5
:10434000FFFFFFFFFFFEA3FFFFFEFFFFFFFFFFFFDB
:10435000FEFFFFFFFFFFFFFFFFFFFFFFFFFFFFFF6E
:10436000FFFFFFFFFFFEFFFFFFFFFFFFFFFFFFFF5E
:10437000FEFFFFFFFFFFFFFFFFFFFFFFFFFFFFFF4E
:10438000FFFFFFFFFFFFFFFFFFFEFFFFFFFFFFFF3E
:10439000FFFFFFFFFEFFFFFFFFFFFFFFFFFFFFFF2E
:1043A000FFFFFFFFFFFFFFFFFFFEFFFFFFFFFFFF1E
:1043B000FFFFFFFFFEFFFFFFFFFFFFFFFFFFFFFF0E
:1043C000FFFFFFFFFFFFFFFFFFFEFFFFFFFFFFFFFE
:1043D000FFFFFFFFFEFFFFFFFFFFFFFFFFFFFFFFEE
:1043E000FFFFFFFFFFFFFFFFFFFFF5FFFFFEFFFFE8
:1043F000FFFFFFFFFFFFFFFFFFFFFFFFFEFFFFFFCE
:10440000FFFFFFFFFEFFFFFFFFFFFFFFFFFFFFFFBD
:10441000FFFFFFFFFFFFFFFFFFFFFFFFFFFEFFFFAD
:10442000FFFFFFFFFEFFFFFFFFFFFFFFFFFFFFFF9D
:10443000FFFFFFFFFFFFFFFFFFFFFFFFFFFEFFFF8D
:10444000FFFFFFFFFEFFFFFFFFFFFFFFFFFFFFFF7D
:10445000FFFFFFFFFFFFFFFFFFFFFFFFFFFEFFFF6D
:10446000FFFFFFFFFEFFFFFFFFFFFFFFFFFFFFFF5D
:10447000FFFFFF39FFFFFFFFFFFFFFFFFFFEFFFF13
:10448000FFFFFFFFFEFFFFFFFFFFFFFFFFFFFFFF3D
:10449000FFFFFFFFFFFFFFFFFFFFFFFFFFFEFFFF2D
:1044A000FFFFFFFFFFFFFFFFFFFFFFFFFFFFFFFF1C
:1044B000FFFFFFFFFFFFFFFFFFFFFFFFFFFEFFFF0D
:1044C000FFFFFFFFFFFFFFFFFFFFFFFFFFFFFFFFFC
:1044D000FFFFFFFFFFFFFFFFFFFFFFFFFFFEFFFFED
:1044E000FFFEFFFFFFFFFFFFFEFFFFFFFFFFFFFFDE
:1044F000FFFFFFFFFFFFFFFFFFFFFFFFFFFFFFFFCC
:10450000FFFFFFFFFFFEFFFFFFFFFFFFFFFFFFFFBC
:10451000FEFFFFFFFFFFFFFFFFFFFFFFFFFFFFFFAC
:10452000FFFFFFFFFFFEFFFFFFFFFFFFFFFFFFFF9C
:10453000FEFFFFFFFFFFFFFFFFFFFFFFFFFFFFFF8C
:10454000FFFFFFFFFFFEFFFFFFFFFFFFFFFFFFFF7C
:10455000FEFFFFFFFFFFFFFFFFFFFFFFFFFFFFFF6C
:10456000FFFFFFFFFFFEFFFFFFFFFFFFFEFFFFFF5D
:10457000FEFFFFFFFFFFFFFFFFFFFFFFFFFFFFFF4C
:10458000FFFFFFFFFFFEFFFFFFFFFFFFFFFFFFFF3C
:10459000FEFFFFFFFFFFFFFFFFFFFFFFFFFFFFFF2C
:1045A000FFFFFFFFFFFFFFFFFFFFFFFFFFFFFFFF1B
:1045B000FEFFFFFFFFFFFFFFFFFFFFFFFFFFFFFF0C
:1045C000FFFFFFFFFFFFFFFFFFFFFFFFFFFFFFFFFB
:1045D000FEFFFFFFFFFFFFFFFFFFFFFFFFFFFFFFEC
:1045E000FFFFFFFFFFFFFFFFFFFEFFFFFFFFFFFFDC
:1045F000FEFFFFFFFFFFFFFFFCFFFFFFFFFFFFFFCF
:10460000FFFFFFFFFFFFFFFFFFFFFFFFFFFFFFFFBA
:10461000FFFEFFFFFFFFFFFFFFFFFFFFFEFFFFFFAC
:10462000FFFFFFFFFFFFFFFFFFFFFFFFFFFFFFFF9A
:10463000FFFEFFFFFFFFFFFFFFFFFFFFFEFFFFFF8C
:10464000FFFFFFFFFFFFFFFFFFFFFFFFFFFFFFFF7A
:10465000FFFEFFFFFFFFFFFFFFFFFFFFFEFFFFFF6C
:10466000FFFFFFFFFFFFFFFFFFFFFFFFFFFFFFFF5A
:10467000FFFEFFFFFFFFFFFFFFFFFFFFFEFFFFFF4C
:10468000FFFFFFFFFFFFFFFFFFFFFFFFFFFFFFFF3A
:10469000FFFEFFFFFFFFFFFFFFFFFFFFFEFFFFFF2C
:1046A000FFFFFFFFFFFFFFFFFFFFFFFFFFFFFFFF1A
:1046B000FFFEFFFFFFFFFFFFFFFFFFFFFEFFFFFF0C
:1046C000FFFFFFFFFFFFFFFFFFFFFFFFFFFFFFFFFA
:1046D000FFFFFFFFFFFEFFFFFFFFFFFFFEFFFFFFEC
:1046E000FFFFFFFFFFFFFFFFFFFFFFFFFFFFFFFFDA
:1046F000FFFFFFFFFFFEFFFFFFFFFFFFFFFFFFFFCB
:10470000FEFFFFFFFFFFFFFFFEFFFFFFFFFFFFFFBB
:10471000FFFFFFFFFFFFFFFFFFFFFFFFFFFFFFFFA9
:10472000FFFFFFFFFFFFFFFFFEFFFFFFFFFFFFFF9A
:10473000FFFFFFFFFFFFFFFFFFFFFFFFFFFFFFFF89
:10474000FFFEFFFFFFFFFFFFFEFFFFFFFFFFFFFF7B
:10475000FFFFFFFFFFFFFFFFFFFFFFFFFFFFFFFF69
:10476000FFFEFFFFFFFFFFFFFEFFFFFFFFFFFFFF5B
:10477000FFFFFFFFFFFFFFFFFFFFFFFFFFFFFFFF49
:10478000FFFEFFFFFFFFFFFFFEFFFFFFFFFFFFFF3B
:10479000FFFFFFFFFFFFFFFFFFFFFFFFFFFFFFFF29
:1047A000FFFEFFFFFFFFFFFFFEFFFFFFFFFFFFFF1B
:1047B000FFFFFFFFFFFFFFFFFFFFFFFFFFFFFFFF09
:1047C000FFFEFFFFFFFFFFFFFEFFFFFFFFFFFFFFFB
:1047D000FFFFFFFFFFFFFFFFFFFFFFFFFFFFFFFFE9
:1047E000FFFEFFFFFFFFFFFFFFFFFFFFFEFFFFFFDB
:1047F000FFFFFFFFFFFFFFFFFFFFFFFFFFFFFFFFC9
:10480000FFFFFFFFFFFFFFFFFFFFFFFFFFFFFFFFB8
:10481000FFFEFFFFFFFFFFFFFEFFFFFFFEFFFFFFAB
:10482000FFFFFFFFFFFFFFFFFFFFFFFFFFFEFFFF99
:10483000FFFFFFFFFFFFFFFFFEFFFFFFFFFFFFFF89
:10484000FFFFFFFFFFFFFFFFFFFFFFFFFFFEFFFF79
:10485000FFFFFFFFFFFFFFFFFEFFFFFFFFFFFFFF69
:10486000FFFFFFFFFFFFFFFFFFFFFFFFFFFEFFFF59
:10487000FFFFFFFFFFFFFFFFFEFFFFFFFFFFFFFF49
:10488000FFFFFFFFFFFFFFFFFFFFFFFFFFFFFFFF38
:10489000FFFEFFFFFFFFFFFFFFFFFFFFFEFFFFFF2A
:1048A000FFFFFFFFFFFFFFFFFFFFFFFFFFFFFFFF18
:1048B000FFFEFFFFFFFFFFFFFEFFFFFFFEFFFFFF0B
:1048C000FFFFFFFFFFFFFFFFFFFFFFFFFFFFFFFFF8
:1048D000FFFEFFFFFFFFFFFFFFFFFFFFFEFFFFFFEA
:1048E000FFFFFFFFFFFFFFFFFFFFFFFFFFFFFFFFD8
:1048F000FFFEFFFFFFFFFFFFFFFFFFFFFEFFFFFFCA
:10490000FFFFFFFFFE82FFFFFEFFFFFFFFFFFFFF36
:10491000FFFFFFFFFFFFFF8BFFFFFFFFFFFFFFFF1B
:10492000FFFFFFFFFEFFFFFFFFFFFFFF96FFFFFF01
:10493000FFFFFFFFFFFFFFFFFFFFFFFFFFFE9FFFE8
:10494000FFFEFFFFFEFFFFFFFFFFFFFFFFFFFFFF79
:10495000FFFFFFFFFFFFFFFFFFFFFFFFFFFEFFFF68
:10496000FFFFFFFFFEFFFFFFFFFFFFFFFFFFFFFF58
:10497000FFFFFFFFFFFFFFFFFFFFFFFFFFFEFFFF48
:10498000FFFFFFFFFFFFFFFFFEFFFFFFFFFFFFFF38
:10499000FFFFFFFFFFFFFFFFFFFFFFFFFFFFFFFF27
:1049A000FFFEFFFFFFFFFFFFFEFFFFFFFFFFFFFF19
:1049B000FFFFFFFFFFFFFFDBFFFFFFFFFFFFFFFF2B
:1049C000FFFEFFFFFFFFFFFFFEFFFFFFFFFFFFFFF9
:1049D000FFFFFFFFFFFFFFFFFFFFFFFFFFFFFFFFE7
:1049E000FFFEFFFFFFFFFFFFFFFFFFFFFFFFFFFFD8
:1049F000FFFFFFFFFFFFFFFFFFFFFFFFFFFFFFFFC7
:104A0000FFFEFFFFFFFFFFFFFFFFFFFFFEFFFFFFB8
:104A1000FFFFFFFFFFFFFFFFFFFFFFFFFFFFFFFFA6
:104A2000FFFEFFFFFFFFFFFFFFFFFFFFFEFFFFFF98
:104A3000FFFFFFFFFFFFFFFFFFFFFFFFFFFFFFFF86
:104A4000FFFFFFFFFFFFFFFFFFFFFFFFFEFFFFFF77
:104A5000FFFFFFFFFFFFFFFFFFFFFFFFFFFFFFFF66
:104A6000FFFFFFFFFFFFFFFFFFFFFFFFFEFFFFFF57
:104A7000FFFFFFFFFFFFFFFFFFFFFFFFFFFFFFFF46
:104A8000FFFFFFFFFFFFFFFFFFFFFFFFFEFFFFFF37
:104A9000FFFFFFFFFFFFFFFFFFFFFFFFFFFFFFFF26
:104AA000FFFFFFFFFFFEFFFFFFFFFFFFFEFFFFFF18
:104AB000FFFFFFFFFFFFFFFFFFFFFFFFFFFFFFFF06
:104AC000FFFFFFFFFFFEFFFFFFFFFFFFFEFFFFFFF8
:104AD000FFFFFFFFFFFFFFFFFFFFFFFFFFFFFFFFE6
:104AE000FFFFFFFFFFFEFFFFFFFFFFFFFF76FFFF60
:104AF000FEFFFFFFFFFFFFFFFFFFFFFFFFFFFFFFC7
:104B0000FFFFFFFFFFFFFFFFFFFFFFFFFFFEFFFFB6
:104B1000FFFFFFFFFFFFFFFFFEFFFFFFFFFFFFFFA6
:104B2000FFFFFFFFFFFFFFFFFFFFFFFFFFFEFFFF96
:104B3000FFFFFFFFFFFFFFFFFEFFFFFFFFFFFFFF86
:104B4000FFFFFFFFFFFFFFFFFFFFFFFFFFFEFFFF76
:104B5000FFFFFFFFFFFFFFFFFEFFFFFFFFFFFFFF66
:104B6000FFFFFFFFFFFFFFFFFFFFB5FFFFFEFFFFA0
:104B7000FFFFFFFFFEFFFFFFFFFFFFFFBEFFFFFF87
:104B8000FFFFFFFFFFFFFFFFFFFFFFFFFFFEFFFF36
:104B9000FFFFFFFFFFFFFFFFFEFFFFFFFFFFFFFF26
:104BA000FFFFFFFFFFFFFFFFFFFFFFFFFFFEFFFF16
:104BB000FFFFFFFFFFFFFFFFFEFFFFFFFFFFFFFF06
:104BC000FFFFFFFFFFFFFFFFFFFFFFFFFFFEFFFFF6
:104BD000FFFFFFFFFFFFFFFFFEFFFFFFFFFFFFFFE6
:104BE000FFFFFFFFFFFFFFFFFFFFFFFFFFFEFFFFD6
:104BF000FFFFFFFFFFFFFFFFFEFFFFFFFFFFFFFFC6
:104C0000FFFFFFFFFFFFFFFFFFFFFFFFFFFFFFFFB4
:104C1000FFFFFFFFFFFEFFFFFFFFFFFFFFFFFFFFA5
:104C2000FEFFFFFFFFFFFFFFFFFFFFFFFFFFFFFF95
:104C3000FFFFFFFFFFFEFFFFFFFFFFFFFFFFFFFF85
:104C4000FEFFFFFFFFFFFFFFFFFFFFFFFFFFFFFF75
:104C5000FFFFFFFFFFFEFFFFFFFFFFFFFFFFFFFF65
:104C6000FEFFFFFFFFFFFFFFFFFFFF35FFFFFFFF1F
:104C7000FFFFFFFFFFFEFFFFFFFFFFFFFFFFFFFF45
:104C8000FEFFFFFFFFFFFFFFFFFFFFFFFFFFFFFF35
:104C9000FFFFFFFFFFFEFFFFFFFFFFFFFFFFFFFF25
:104CA000FEFFFFFFFFFFFFFFFFFFFFFFFFFFFFFF15
:104CB000FFFFFFFFFFFEFFFFFFFFFFFFFFFFFFFF05
:104CC000FEFFFFFFFFFFFFFFFFFFFFFFFFFFFFFFF5
:104CD000FFFFFFFFFFFEFFFFFFFFFFFFFFFFFFFFE5
:104CE000FEFFFFFFFFFFFFFFFFFFFFFFFFFFFFFFD5
:104CF000FFFFFFFFFFFFFFFFFFFEFFFFFFFFFFFFC5
:104D0000FEFFFFFFFFFEFFFFFFFFFFFFFFFFFFFFB5
:104D1000FEFFFFFFFFFFFFFFFFFFFFFFFFFFFFFFA4
:104D2000FFFFFFFFFFFEFFFFFFFFFFFFFFFFFFFF94
:104D3000FEFFFFFFFFFFFFFFFFFFFFFFFFFFFFFF84
:104D4000FFFFFFFFFFFEFFFFFFFFFFFFFFFFFFFF74
:104D5000FEFFFFFFFFFFFFFFFFFFFFFFFFFFFFFF64
:104D6000FFFFFFFFFFFEFFFFFFFFFFFFFEFFFFFF55
:104D7000FEFFFFFFFFFFFFFFFFFFFFFFFFFFFFFF44
:104D8000FFFFFFFFFFFEFFFFFFFFFFFFFFFFFFFF34
:104D9000FEFFFFFFFFFFFFFFFFFFFFFFFFFFFFFF24
:104DA000FFFFFFFFFFFFFFFFFFFFFFFFFFFFFFFF13
:104DB000FEFFFFFFFFFFFFFFFFFFFFFFFFFFFFFF04
:104DC000FFFFFFFFFFFFFFFFFFFFFFFFFFFFFFFFF3
:104DD000FEFFFFFFFFFFFFFFFFFFFFFFFFFFFFFFE4
:104DE000FFFFFFFFFFFFFFFFFFFEFFFFFFFFFFFFD4
:104DF000FEFFFFFFFEFFFFFFFFFFFFFFFFFFFFFFC5
:104E0000FFFFFFFFFFFFFFFFFFFFFFFFFFFFFFFFB2
:104E1000FFFFFFFFFFFEFFFFFFFFFFFFFFFFFFFFA3
:104E2000FEFFFFFFFFFFFFFFFFFFFFFFFFFFFFFF93
:104E3000FFFE19FFFFFEFFFFFFFFFFFFFEFFFFFF6B
:104E4000FFFFFFFFFFFFFFFFFFFFFFFFFFFFFFFF72
:104E5000FFFEFFFFFFFFFFFFFFFFFFFFFEFFFFFF64
:104E6000FFFFFFFFFFFFFFFFFFFFFFFFFFFFFFFF52
:104E7000FFFEFFFFFFFFFFFFFFFFFFFFFEFFFFFF44
:104E8000FFFFFFFFFFFFFFFFFFFFFFFFFFFFFFFF32
:104E9000FFFFFFFFFFFEFFFFFFFFFFFFFFFFFFFF23
:104EA000FEFFFFFFFFFFFFFFFFFFFFFFFFFFFFFF13
:104EB000FFFFFFFFFFFEFFFFFFFFFFFFFEFFFFFF04
:104EC000FEFFFFFFFFFFFFFFFFFFFFFFFFFFFFFFF3
:104ED000FFFFFFFFFFFEFFFFFFFFFFFFFFFFFFFFE3
:104EE000FEFFFFFFFFFFFFFFFFFFFFFFFFFFFFFFD3
:104EF000FFFFFFFFFFFEFFFFFFFFFFFFFFFFFFFFC3
:104F0000FEFFFFFFFFFFFFFFFEFFFFFFFFFFFFFFB3
:104F1000FFFFFFFFFFFFFFFFFFFFFFFFFFFFFFFFA1
:104F2000FFFFFFFFFFFFFFFFFEFFFFFFFFFFFFFF92
:104F3000FFFFFFFFFFFFFFFFFFFFFFFFFFFFFFFF81
:104F4000FFFEFFFFFFFFFFFFFEFFFFFFFFFFFFFF73
:104F5000FFFFFFFFFFFFFFFFFFFFFFFFFFFFFFFF61
:104F6000FFFEFFFFFFFFFFFFFEFFFFFFFFFFFFFF53
:104F7000FFFFFFFFFFFFFFFFFFFFFFFFFFFFFFFF41
:104F8000FFFEFFFFFFFFFFFFFEFFFFFFFFFFFFFF33
:104F9000FFFFFFFFFFFFFFFFFFFFFFFFFFFFFFFF21
:104FA000FFFEFFFFFFFFFFFFFEFFFFFFFFFFFFFF13
:104FB000FFFFFFFFFFFFFFFFFFFFFFFFFFFFFFFF01
:104FC000FFFEFFFFFFFFFFFFFEFFFFFFFFFFFFFFF3
:104FD000FFFFFFFFFFFFFFFFFFFFFFFFFFFFFFFFE1
:104FE000FFFEFFFFFFFFFFFFFFFFFFFFFFFFFFFFD2
:104FF000FFFFFFFFFFFFFFFFFFFFFFFFFFFFFFFFC1
:10500000FFFFFFFFFFFEFFFFFFFFFFFFFFFFFFFFB1
:10501000FEFFFFFFFFFFFFFFFFFFFFFFFFFFFFFFA1
:10502000FFFFFFFFFFFEFFFFFFFFFFFFFEFFFFFF92
:10503000FEFFFFFFFFFFFFFFFFFFFFFFFFFFFF1F61
:10504000FFFFFFFFFFFEFFFFFFFFFFFFFEFFFFFF72
:10505000FFFFFFFF2AFFFFFFFFFFFFFFFFFFFFFF35
:10506000FFFFFFFFFFFFFFFFFFFFFFFFFEFFFFFF51
:10507000FFFFFFFFFFFFFFFFFFFFFFFFFFFFFFFF40
:10508000FFFFFFFFFFFEFFFFFFFFFFFFFFFFFFFF31
:10509000FEFFFFFFFFFFFFFFFFFFFFFFFFFFFFFF21
:1050A000FFFFFFFFFFFFFFFFFFFFFFFFFEFFFFFF11
:1050B000FEFFFFFFFFFFFFFFFFFFFFFFFFFFFF5FA1
:1050C000FFFFFFFFFFFFFFFFFFFFFFFFFFFFFFFFF0
:1050D000FEFFFFFFFFFFFFFFFFFFFFFFFFFFFFFFE1
:1050E000FFFFFFFFFFFFFFFFFFFEFFFFFFFFFFFFD1
:1050F000FEFFFFFFFFFFFFFFFFFFFFFFFFFFFFFFC1
:10510000FFFFFFFFFFFFFFFFFFFEFFFFFFFFFFFFB0
:10511000FFFFFFFFFEFFFFFFFFFFFFFFFFFFFFFFA0
:10512000FFFFFFFFFFFFFFFFFFFEFFFFFFFFFFFF90
:10513000FFFFFFFFFEFFFFFFFFFFFFFFFFFFFFFF80
:10514000FFFFFFFFFFFFFFFFFFFEFFFFFFFFFFFF70
:10515000FEFFFFFFFFFFFFFFFFFFFFFFFFFFFFFF60
:10516000FFFFFFFFFFFEFFFFFFFFFFFFFFFFFFFF50
:10517000FEFFFFFFFFFFFFFFFFFFFFFFFFFFFFFF40
:10518000FFFFFFFFFFFFFFFFFFFEFFFFFFFFFFFF30
:10519000FFFFFFFFFEFFFFFFFFFFFFFFFFFFFFFF20
:1051A000FFFFFFFFFFFFFFFFFFFEFFFFFFFFFFFF10
:1051B000FFFFFFFFFEFFFFFFFFFFFFFFFFFFFFFF00
:1051C000FFFFFFFFFFFFFFFFFFFEFFFFFFFFFFFFF0
:1051D000FFFFFFFFFEFFFFFFFFFFFFFFFFFFFFFFE0
:1051E000FFFFFFFFFFFFFFFFFFFFFFFFFFFFFFFFCF
:1051F000FFFFFFFFFEFFFFFFFFFFFFFFFFFFFFFFC0
:10520000FFFFFFFFFFFFFFFFFFFFFFFFFFFFFFFFAE
:10521000FFFFFFFFFFFEFFFFFFFFFFFFFFFFFFFF9F
:10522000FEFFFFFFFFFFFFFFFFFFFFFFFFFFFFFF8F
:10523000FFFFFFFFFFFEFFFFFFFFFFFFFFFFFFFF7F
:10524000FEFFFFFFFFFFFFFFFFFFFFFFFFFFFFFF6F
:10525000FFFFFFFFFFFEFFFFFFFFFFFFFFFFFFFF5F
:10526000FFFFFFFFFFFFFFFFFFFFFFFFFFFFFFFF4E
:10527000FFFFFFFFFFFFFFFFFFFFFFFFFEFFFFFF3F
:10528000FFFFFFFFFFFFFFFFFFFFFFFFFFFFFFFF2E
:10529000FFFFFFFFFFFEFFFFFFFFFFFFFFFFFFFF1F
:1052A000FEFFFFFFFFFFFFFFFFFFFFFFFFFFFFFF0F
:1052B000FFFFFFFFFFFEFFFFFFFFFFFFFFFFFFFFFF
:1052C000FEFFFFFFFFFFFFFFFFFFFFFFFFFFFFFFEF
:1052D000FFFFFFFFFFFEFFFFFFFFFFFFFFFFFFFFDF
:1052E000FEFFFFFFFFFFFFFFFFFFFFFFFFFFFFFFCF
:1052F000FFFFFFFFFFFEFFFFFFFFFFFFFFFFFFFFBF
:10530000FEFFFFFFFFFF83FFFFFEFFFFFFFFFFFF2B
:10531000FEFFFFFFFFFFFFFF8CFFFFFFFFFFFFFF11
:10532000FFFFFFFFFFFEFFFFFFFFFFFFFFFFFFFF8E
:10533000FEFFFFFFFFFFFFFFFFFFFFFFFFFFFFFF7E
:10534000FFFFFFFFFFFEFFFFFFFFFFFFFFFFFFFF6E
:10535000FEFFFFFFFFFFFFFFFFFFFFFFFFFFFFFF5E
:10536000FFFFFFFFFFFEFFFFFFFFFFFFFFFFFFFF4E
:10537000FEFFFFFFFFFFFFFFFFFFFFFFFFFFFFFF3E
:10538000FFFFFFFFFFFFFFFFFFFEFFFFFFFFFFFF2E
:10539000FFFFFFFFFEFFFFFFFFFFFFFFFFFFFFFF1E
:1053A000FFFFFFFFFFFFFFFFFFFEFFFFFFFFFFFF0E
:1053B000FEFFFFFFFFFFFFFFFFFFFFFFFFFFFFFFFE
:1053C000FFFFFFFFFFFFFFFFFFFEFFFFFFFFFFFFEE
:1053D000FFFFFFFFFEFFFFFFFFFFFFFFFFFFFFFFDE
:1053E000FFFFFFFFFFFFFFFFFFFFFFFFFFFFFFFFCD
:1053F000FFFFFFFFFEFFFFFFFFFFFFFFFFFFFFFFBE
:10540000FFFFFFFFFFFFFFFFFFFFFFFFFFFFFFFFAC
:10541000FFFEFFFFFFFFFFFFFEFFFFFFFEFFFFFF9F
:10542000FFFFFFFFFFFFFFFFFFFFFFFFFFFEFFFF8D
:10543000FFFEFFFFFFFFFFFFFEFFFFFFFFFFFFFF7E
:1054400020FFFFFFFFFFFFFFFFFFFFFFFFFEFFFF4C
:10545000FFFFFFFFFFFFFFFFFEFFFFFFFFFFFFFF5D
:10546000FFFFFFFFFFFFFFFFFFFFFFFFFFFEFFFF4D
:10547000FFFFFFFFFFFFFFFFFEFFFFFFFFFFFFFF3D
:10548000FFFFFFFFFFFFFFFFFFFFFFFFFFFFFFFF2C
:10549000FFFEFFFFFFFFFFFFFEFFFFFFFFFFFFFF1E
:1054A00050FFFFFFFFFFFFFFFFFFFFFFFFFEFFFFBC
:1054B000FFFFFFFFFFFFFFFFFEFFFFFFFFFFFFFFFD
:1054C000FFFFFFFFFFFFFFFFFFFFFFFFFFFFFFFFEC
:1054D000FFFEFFFFFFFFFFFFFEFFFFFFFEFFFFFFDF
:1054E000FFFFFFFFFFFFFFFFFFFFFFFFFFFFFFFFCC
:1054F000FFFEFFFFFFFFFFFFFFFFFFFFFEFFFFFFBE
:10550000FFFFFFFFFFFFFFFFFFFFFFFFFFFFFFFFAB
:10551000FFFFFFFFFFFEFFFFFFFFFFFFFFFFFFFF9C
:10552000FEFFFFFFFFFFFFFFFFFFFFFFFFFFFFFF8C
:10553000FFFFFFFFFFFEFFFFFFFFFFFFFEFFFFFF7D
:10554000FFFFFFFFFFFFFFFFFFFFFFFFFFFFFFFF6B
:10555000FFFEFFFFFFFFFFFFFFFFFFFFFEFFFFFF5D
:10556000FFFFFFFFFFFFFFFFFFFFFFFFFFFFFFFF4B
:10557000FFFEFFFFFFFFFFFFFFFFFFFFFEFFFFFF3D
:10558000FFFFFFFFFFFFFFFFFFFFFFFFFFFFFFFF2B
:10559000FFFFFFFFFFFEFFFFFFFFFFFFFFFFFFFF1C
:1055A000FEFFFFFFFFFFFFFFFFFFFFFFFFFFFFFF0C
:1055B000FFFED9FFFFFEFFFFFFFFFFFFFEFFFFFF24
:1055C000FFFFFFFFE2FFFFFFFFFFFFE5FFFFFFFF22
:1055D000FFFFFFFFFFFEFFFFFFFFFFFFFEEEFFFFEE
:1055E000FEFFFFFFFFFFFFFFFFFFFFFFFFFFFFFFCC
:1055F000FFFFFFFFFFFEFFFFFFFFFFFFFFFFFFFFBC
:10560000FEFFFFFFFFFFFFFF04FFFFFFFFFFFFFFA6
:10561000FFFFFFFFFFFFFFFFFFFEFFFFFFFFFFFF9B
:10562000FFFFFFFFFFFFFFFFFFFFFFFFFFFFFFFF8A
:10563000FFFFFFFFFFFFFFFFFFFEFFFFFFFFFFFF7B
:10564000FFFFFFFFFFFFFFFFFFFFFFFFFFFFFFFF6A
:10565000FFFFFFFFFFFFFFFFFFFEFFFFFFFFFFFF5B
:10566000FFFFFFFFFFFFFFFFFFFFFFFFFFFFFFFF4A
:10567000FFFFFFFFFFFFFFFFFFFEFFFFFFFFFFFF3B
:10568000FFFFFFFFFEFFFFFFFFFFFFFFFFFFFFFF2B
:10569000FFFFFFFFFFFFFFFFFFFEFFFFFFFFFFFF1B
:1056A000FFFFFFFFFEFFFFFFFFFFFFFFFFFFFFFF0B
:1056B000FFFFFFFFFFFFFFFFFFFEFFFFFFFFFFFFFB
:1056C000FFFFFFFFFEFFFFFFFFFFFFFFFFFFFFFFEB
:1056D000FFFFFFFFFFFFFFFFFFFEFFFFFFFFFFFFDB
:1056E000FFFFFFFFFEFFFFFFFFFFFFFFFFFFFFFFCB
:1056F000FFFFFFFFFFFFFFFFFFFFFFFFFFFEFFFFBB
:10570000FFFFFFFFFFFEFFFFFFFFFFFFFFFFFFFFAA
:10571000FEFFFFFFFFFFFFFFFFFFFFFFFFFFFFFF9A
:10572000FFFFFFFFFFFEFFFFFFFFFFFFFFFFFFFF8A
:10573000FEFFFFFFFFFFFFFFFFFFFFFFFFFFFFFF7A
:10574000FFFFFFFFFFFEFFFFFFFFFFFFFEA6FFFFC4
:10575000FEFFFFFFFFFFFFFFFFFFFFFFFFFFFFAFAA
:10576000FFFFFFFFFFFEFFFFFFFFFFFFFEFFFFFF4B
:10577000FFFFFFFFBAFFFFFFFFFFFFFFFFFFFFFF7E
:10578000FFFFFFFFFFFEFFFFFFFFFFFFFFFFFFFF2A
:10579000FEFFFFFFFFFFFFFFFFFFFFFFFFFFFFFF1A
:1057A000FFFFFFFFFFFFFFFFFFFFFFFFFFFFFFFF09
:1057B000FEFFFFFFFFFFFFFFFFFFFFFFFFFFFFFFFA
:1057C000FFFFFFFFFFFFFFFFFFFFFFFFFFFFFFFFE9
:1057D000FEFFFFFFFFFFFFFFFFFFFFFFFFFFFFFFDA
:1057E000FFFFFFFFFFFFFFFFFFFEFFFFFFFFFFFFCA
:1057F000FEFFFFFFFFFFFFFFFFFFFFFFFFFFFFFFBA
:10580000FFFFFFFFFFFFFFFFFFFFFFFFFFFFFFFFA8
:10581000FFFEFFFFFFFFFFFFFFFFFFFFFEFFFFFF9A
:10582000FFFFFFFFFFFFFFFFFFFFFFFFFFFFFFFF88
:10583000FFFEFFFFFFFFFFFFFFFFFFFFFEFFFFFF7A
:10584000FFFFFFFFFFFFFFFFFFFFFFFFFFFFFFFF68
:10585000FFFEFFFFFFFFFFFFFFFFFFFFFEFFFFFF5A
:10586000FFFFFFFFFFFFFFFFFFFFFFFFFFFFFFFF48
:10587000FFFEFFFFFFFFFFFFFFFFFFFFFEFFFFFF3A
:10588000FFFFFFFFFFFFFFFFFFFFFFFFFFFFFFFF28
:10589000FFFEFFFFFFFFFFFFFFFFFFFFFEFFFFFF1A
:1058A000FFFFFFFFFFFFFFFFFFFFFFFFFFFFFFFF08
:1058B000FFFEFFFFFFFFFFFFFFFFFFFFFEFFFFFFFA
:1058C000FFFFFFFFFFFFFFFFFFFFFFFFFFFFFFFFE8
:1058D000FFFEFFFFFFFFFFFFFFFFFFFFFEFFFFFFDA
:1058E000FFFFFFFFFFFFFFFFFFFFFFFFFFFFFFFFC8
:1058F000FFFFFFFFFFFEFFFFFFFFFFFFFFFFFFFFB9
:10590000FEFFFFFFFFFFFFFFFE84FFFFFEFFFFFF25
:10591000FFFFFFFFFFFFFFFFFFFFFFFFFFFFFFFF97
:10592000FFFEFFFFFFFFFFFFFEFFFFFFFFFFFFFF89
:10593000FFFFFFFFFFFFFFFFFFFFFFFFFFFFFFFF77
:10594000FFFEFFFFFFFFFFFFFEFFFFFFFFFFFFFF69
:10595000FFFFFFFFFFFFFFFFFFFFFFFFFFFFFFFF57
:10596000FFFEFFFFFFFFFFFFFEFFFFFFFFFFFFFF49
:10597000FFFFFFFFFFFFFFFFFFFFFFFFFFFFFFFF37
:10598000FFFEFFFFFFFFFFFFFEFFFFFFFFFFFFFF29
:10599000FFFFFFFFFFFFFFFFFFFFFFFFFFFFFFFF17
:1059A000FFFEFFFFFFFFFFFFFEFFFFFFFFFFFFFF09
:1059B000FFFFFFFFFFFFFFFFFFFFFFFFFFFFFFFFF7
:1059C000FFFEFFFFFFFFFFFFFEFFFFFFFFFFFFFFE9
:1059D000FFFFFFFFFFFFFFFFFFFFFFFFFFFFFFFFD7
:1059E000FFFEFFFFFFFEFFFFFFFFFFFFFEFFFFFFCA
:1059F000FFFFFFFFFFFFFFFFFFFFFFFFFFFFFFFFB7
:105A0000FFFEFFFFFFFFFFFFFFFFFFFFFEFFFFFFA8
:105A1000FFFFFFFFFFFFFFFFFFFFFFFFFFFFFFFF96
:105A2000FFFEFFFFFFFFFFFFFFFFFFFFFEFFFFFF88
:105A3000FFFFFFFFFFFFFFFFFFFFFFFFFFFFFFFF76
:105A4000FFFFFFFFFFFFFFFFFF24FFFFFEFFFFFF42
:105A5000FFFFFFFFFFFFFFFFFFFFFF2DFFFFFFFF28
:105A6000FFFFFFFFFFFFFFFFFEFFFFFFFFFFFFFF47
:105A7000FFFFFFFFFFFFFFFFFFFFFFFFFFFFFFFF36
:105A8000FFFEFFFFFFFFFFFFFFFFFFFFFEFFFFFF28
:105A9000FFFFFFFFFFFFFFFFFFFFFFFFFFFFFFFF16
:105AA000FFFFFFFFFFFEFFFFFFFFFFFFFEFFFFFF08
:105AB000FFFFFFFFFFFFFFFFFFFFFFFFFFFFFFFFF6
:105AC000FFFFFFFFFFFEFFFFFFFFFFFFFEFFFFFFE8
:105AD000FFFFFFFFFFFFFFFFFFFFFFFFFFFFFFFFD6
