:100000000C9434000C943E000C943E000C943E0082
:100010000C943E000C943E000C943E000C943E0068
:100020000C943E000C943E000C943E000C943E0058
:100030000C943E000C943E000C943E000C943E0048
:100040000C943E000C943E000C943E000C943E0038
:100050000C943E000C943E000C943E000C943E0028
:100060000C943E000C943E0011241FBECFEFD8E04C
:10007000DEBFCDBF0E9440000C94C8000C9400006D
:10008000109285001092840084B18E6184B9E1E8F9
:10009000F0E0808181608083C0E0D0E0E4E8F0E0BF
:1000A0000F2EFDE7AF2EB12CF02D6894772471F858
:1000B0000F2EFAEFCF2ED12CF02D6894882482F8E1
:1000C0000F2EF4EFEF2EFF24F394F02D6894992473
:1000D00093F808EE13E040E102C0C0E0D0E02081D8
:1000E000318120383E43D8F3118210822196CE010F
:1000F000B5010E94A000892B19F485B1872585B927
:10010000CE01B6010E94A000892B19F485B1882583
:1001100085B9CE01B7010E94A000892B19F485B1E1
:10012000892585B9CE01B8010E94A000892B19F458
:1001300085B1842785B9C83E83E0D80774F6CFCF50
:1001400097FB072E16F4009407D077FD09D00E9484
:10015000B40007FC05D03EF4909581959F4F08951B
:10016000709561957F4F0895AA1BBB1B51E107C095
:10017000AA1FBB1FA617B70710F0A61BB70B881F37
:10018000991F5A95A9F780959095BC01CD010895C6
:04019000F894FFCF11
:00000001FF
